{"abi":[{"type":"function","name":"VERIFIER_HASH","inputs":[],"outputs":[{"name":"","type":"bytes32","internalType":"bytes32"}],"stateMutability":"pure"},{"type":"function","name":"VERSION","inputs":[],"outputs":[{"name":"","type":"string","internalType":"string"}],"stateMutability":"pure"},{"type":"function","name":"Verify","inputs":[{"name":"proof","type":"uint256[8]","internalType":"uint256[8]"},{"name":"input","type":"uint256[2]","internalType":"uint256[2]"}],"outputs":[],"stateMutability":"view"},{"type":"function","name":"compressProof","inputs":[{"name":"proof","type":"uint256[8]","internalType":"uint256[8]"}],"outputs":[{"name":"compressed","type":"uint256[4]","internalType":"uint256[4]"}],"stateMutability":"view"},{"type":"function","name":"hashPublicValues","inputs":[{"name":"publicValues","type":"bytes","internalType":"bytes"}],"outputs":[{"name":"","type":"bytes32","internalType":"bytes32"}],"stateMutability":"pure"},{"type":"function","name":"verifyCompressedProof","inputs":[{"name":"compressedProof","type":"uint256[4]","internalType":"uint256[4]"},{"name":"input","type":"uint256[2]","internalType":"uint256[2]"}],"outputs":[],"stateMutability":"view"},{"type":"function","name":"verifyProof","inputs":[{"name":"programVKey","type":"bytes32","internalType":"bytes32"},{"name":"publicValues","type":"bytes","internalType":"bytes"},{"name":"proofBytes","type":"bytes","internalType":"bytes"}],"outputs":[],"stateMutability":"view"},{"type":"error","name":"InvalidProof","inputs":[]},{"type":"error","name":"ProofInvalid","inputs":[]},{"type":"error","name":"PublicInputNotInField","inputs":[]},{"type":"error","name":"WrongVerifierSelector","inputs":[{"name":"received","type":"bytes4","internalType":"bytes4"},{"name":"expected","type":"bytes4","internalType":"bytes4"}]}],"bytecode":{"object":"0x6080604052348015600e575f5ffd5b50612b6f8061001c5f395ff3fe608060405234801561000f575f5ffd5b506004361061007b575f3560e01c80636b61d8e7116100595780636b61d8e7146100e9578063eddf243c14610119578063f11817b214610135578063ffa1ad74146101515761007b565b80632a5104361461007f57806341493c601461009d57806344f63692146100b9575b5f5ffd5b61008761016f565b604051610094919061223d565b60405180910390f35b6100b760048036038101906100b291906122f2565b610198565b005b6100d360048036038101906100ce91906123a4565b610332565b6040516100e0919061247e565b60405180910390f35b61010360048036038101906100fe9190612497565b610491565b604051610110919061223d565b60405180910390f35b610133600480360381019061012e9190612503565b61050e565b005b61014f600480360381019061014a9190612564565b6107a8565b005b610159610d63565b6040516101669190612612565b60405180910390f35b5f7f090690902a12d1d02c07a1ad25aa76bded5f6499e12a11ba127669501b5539985f1b905090565b5f82825f906004926101ac9392919061263a565b906101b791906126b5565b90505f6101c261016f565b9050807bffffffffffffffffffffffffffffffffffffffffffffffffffffffff1916827bffffffffffffffffffffffffffffffffffffffffffffffffffffffff1916146102485781816040517f988066a100000000000000000000000000000000000000000000000000000000815260040161023f929190612722565b60405180910390fd5b5f6102538787610491565b905061025d61219c565b885f1c815f6002811061027357610272612749565b5b602002018181525050815f1c8160016002811061029357610292612749565b5b6020020181815250505f868660049080926102b09392919061263a565b8101906102bd91906128c6565b90503073ffffffffffffffffffffffffffffffffffffffff1663eddf243c82846040518363ffffffff1660e01b81526004016102fa9291906129f0565b5f6040518083038186803b158015610310575f5ffd5b505afa158015610322573d5f5f3e3d5ffd5b5050505050505050505050505050565b61033a6121be565b610373825f600881106103505761034f612749565b5b60200201358360016008811061036957610368612749565b5b6020020135610da0565b815f6004811061038657610385612749565b5b6020020181815250506103fb826003600881106103a6576103a5612749565b5b6020020135836002600881106103bf576103be612749565b5b6020020135846005600881106103d8576103d7612749565b5b6020020135856004600881106103f1576103f0612749565b5b6020020135610f4e565b8260026004811061040f5761040e612749565b5b602002018360016004811061042757610426612749565b5b602002018281525082815250505061046f8260066008811061044c5761044b612749565b5b60200201358360076008811061046557610464612749565b5b6020020135610da0565b8160036004811061048357610482612749565b5b602002018181525050919050565b5f7f1fffffffffffffffffffffffffffffffffffffffffffffffffffffffffffffff5f1b600284846040516104c7929190612a55565b602060405180830381855afa1580156104e2573d5f5f3e3d5ffd5b5050506040513d601f19601f820116820180604052508101906105059190612a81565b16905092915050565b5f5f6105198361151a565b915091505f6040516101008682377f21ab438b0ad9688f8d9afc96ed0ab25e6ab7f19ed6f7d58a9dc136d68de55e3e6101008201527f2d1f461ca03a65528393919e9e412f6b82d7096e44fa039bd7642a5112188af76101208201527f100f76d4ac45886c1334d58716121dc0ffa8463738f3f2adf793e15b8ecd7e1d6101408201527f2bf21e8bb2f9419034373c2156cdd7bddf273519dcd7f674ef21e2748ced89f26101608201527f2d4d9aa7e302d9df41749d5507949d05dbea33fbb16c643b22f599a2be6df2e26101808201527f14bedd503c37ceb061d8ec60209fe345ce89830a19230301f076caff004d19266101a08201527f0967032fcbf776d1afc985f88877f182d38480a653f2decaa9794cbc3bf3060c6101c08201527f0e187847ad4c798374d0d6732bf501847dd68bc0e071241e0213bc7fc13db7ab6101e08201527e1752a100a72fdf1e5a5d6ea841cc20ec838bccfcf7bd559e79f1c9c759b6a06102008201527f192a8cc13cd9f762871f21e43451c6ca9eeab2cb2987c4e366a185c25dac2e7f61022082015283610240820152826102608201527f198e9393920d483a7260bfb731fb5d25f1aa493335a9e71297e485b7aef312c26102808201527f1800deef121f1e76426a00665e5c4479674322d4f75edadd46debd5cd992f6ed6102a08201527f275dc4a288d1afb3cbb1ac09187524c7db36395df7be3b99e673b13a075a65ec6102c08201527f1d9befcd05a5323e6da4d435f3b617cdb3af83285c2df711ef39c01571827f9d6102e08201526020816103008360085afa915080518216915050806107a1576040517f7fcdd1f400000000000000000000000000000000000000000000000000000000815260040160405180910390fd5b5050505050565b6107b06121e0565b5f5f6107d2855f600481106107c8576107c7612749565b5b60200201356116ec565b915091505f5f5f5f610814896002600481106107f1576107f0612749565b5b60200201358a60016004811061080a57610809612749565b5b6020020135611821565b93509350935093505f5f61083f8b60036004811061083557610834612749565b5b60200201356116ec565b915091505f5f61084e8c61151a565b91509150898b5f6018811061086657610865612749565b5b602002018181525050888b60016018811061088457610883612749565b5b602002018181525050868b6002601881106108a2576108a1612749565b5b602002018181525050878b6003601881106108c0576108bf612749565b5b602002018181525050848b6004601881106108de576108dd612749565b5b602002018181525050858b6005601881106108fc576108fb612749565b5b602002018181525050838b60066018811061091a57610919612749565b5b602002018181525050828b60076018811061093857610937612749565b5b6020020181815250507f21ab438b0ad9688f8d9afc96ed0ab25e6ab7f19ed6f7d58a9dc136d68de55e3e8b60086018811061097657610975612749565b5b6020020181815250507f2d1f461ca03a65528393919e9e412f6b82d7096e44fa039bd7642a5112188af78b6009601881106109b4576109b3612749565b5b6020020181815250507f100f76d4ac45886c1334d58716121dc0ffa8463738f3f2adf793e15b8ecd7e1d8b600a601881106109f2576109f1612749565b5b6020020181815250507f2bf21e8bb2f9419034373c2156cdd7bddf273519dcd7f674ef21e2748ced89f28b600b60188110610a3057610a2f612749565b5b6020020181815250507f2d4d9aa7e302d9df41749d5507949d05dbea33fbb16c643b22f599a2be6df2e28b600c60188110610a6e57610a6d612749565b5b6020020181815250507f14bedd503c37ceb061d8ec60209fe345ce89830a19230301f076caff004d19268b600d60188110610aac57610aab612749565b5b6020020181815250507f0967032fcbf776d1afc985f88877f182d38480a653f2decaa9794cbc3bf3060c8b600e60188110610aea57610ae9612749565b5b6020020181815250507f0e187847ad4c798374d0d6732bf501847dd68bc0e071241e0213bc7fc13db7ab8b600f60188110610b2857610b27612749565b5b6020020181815250507e1752a100a72fdf1e5a5d6ea841cc20ec838bccfcf7bd559e79f1c9c759b6a08b601060188110610b6557610b64612749565b5b6020020181815250507f192a8cc13cd9f762871f21e43451c6ca9eeab2cb2987c4e366a185c25dac2e7f8b601160188110610ba357610ba2612749565b5b602002018181525050818b601260188110610bc157610bc0612749565b5b602002018181525050808b601360188110610bdf57610bde612749565b5b6020020181815250507f198e9393920d483a7260bfb731fb5d25f1aa493335a9e71297e485b7aef312c28b601460188110610c1d57610c1c612749565b5b6020020181815250507f1800deef121f1e76426a00665e5c4479674322d4f75edadd46debd5cd992f6ed8b601560188110610c5b57610c5a612749565b5b6020020181815250507f275dc4a288d1afb3cbb1ac09187524c7db36395df7be3b99e673b13a075a65ec8b601660188110610c9957610c98612749565b5b6020020181815250507f1d9befcd05a5323e6da4d435f3b617cdb3af83285c2df711ef39c01571827f9d8b601760188110610cd757610cd6612749565b5b6020020181815250505f610ce9612203565b6020816103008f60085afa9150811580610d1b57506001815f60018110610d1357610d12612749565b5b602002015114155b15610d52576040517f7fcdd1f400000000000000000000000000000000000000000000000000000000815260040160405180910390fd5b505050505050505050505050505050565b60606040518060400160405280600681526020017f76332e302e300000000000000000000000000000000000000000000000000000815250905090565b5f7f30644e72e131a029b85045b68181585d97816a916871ca8d3c208c16d87cfd4783101580610df057507f30644e72e131a029b85045b68181585d97816a916871ca8d3c208c16d87cfd478210155b15610e27576040517f7fcdd1f400000000000000000000000000000000000000000000000000000000815260040160405180910390fd5b5f83148015610e3557505f82145b15610e42575f9050610f48565b5f610ee07f30644e72e131a029b85045b68181585d97816a916871ca8d3c208c16d87cfd4780610e7557610e74612aac565b5b60037f30644e72e131a029b85045b68181585d97816a916871ca8d3c208c16d87cfd4780610ea657610ea5612aac565b5b877f30644e72e131a029b85045b68181585d97816a916871ca8d3c208c16d87cfd4780610ed657610ed5612aac565b5b898a090908611bfc565b9050808303610ef8575f600185901b17915050610f48565b610f0181611c98565b8303610f165760018085901b17915050610f48565b6040517f7fcdd1f400000000000000000000000000000000000000000000000000000000815260040160405180910390fd5b92915050565b5f5f7f30644e72e131a029b85045b68181585d97816a916871ca8d3c208c16d87cfd4786101580610f9f57507f30644e72e131a029b85045b68181585d97816a916871ca8d3c208c16d87cfd478510155b80610fca57507f30644e72e131a029b85045b68181585d97816a916871ca8d3c208c16d87cfd478410155b80610ff557507f30644e72e131a029b85045b68181585d97816a916871ca8d3c208c16d87cfd478310155b1561102c576040517f7fcdd1f400000000000000000000000000000000000000000000000000000000815260040160405180910390fd5b5f8385878917171703611044575f5f91509150611511565b5f5f5f7f30644e72e131a029b85045b68181585d97816a916871ca8d3c208c16d87cfd478061107657611075612aac565b5b60037f30644e72e131a029b85045b68181585d97816a916871ca8d3c208c16d87cfd476110a39190612b06565b7f30644e72e131a029b85045b68181585d97816a916871ca8d3c208c16d87cfd47806110d2576110d1612aac565b5b8a8c090990505f7f30644e72e131a029b85045b68181585d97816a916871ca8d3c208c16d87cfd478061110857611107612aac565b5b8a7f30644e72e131a029b85045b68181585d97816a916871ca8d3c208c16d87cfd478061113857611137612aac565b5b8c8d090990505f7f30644e72e131a029b85045b68181585d97816a916871ca8d3c208c16d87cfd478061116e5761116d612aac565b5b8a7f30644e72e131a029b85045b68181585d97816a916871ca8d3c208c16d87cfd478061119e5761119d612aac565b5b8c8d090990507f30644e72e131a029b85045b68181585d97816a916871ca8d3c208c16d87cfd47806111d3576111d2612aac565b5b7f30644e72e131a029b85045b68181585d97816a916871ca8d3c208c16d87cfd478061120257611201612aac565b5b7f30644e72e131a029b85045b68181585d97816a916871ca8d3c208c16d87cfd478061123157611230612aac565b5b8c860984087f2b149d40ceb8aaae81be18991be06ac3b5b4c5e559dbefa33267e6dc24a138e50894506113167f30644e72e131a029b85045b68181585d97816a916871ca8d3c208c16d87cfd478061128c5761128b612aac565b5b7f30644e72e131a029b85045b68181585d97816a916871ca8d3c208c16d87cfd47806112bb576112ba612aac565b5b7f30644e72e131a029b85045b68181585d97816a916871ca8d3c208c16d87cfd47806112ea576112e9612aac565b5b8e870984087f2fcd3ac2a640a154eb23960892a85a68f031ca0c8344b23a577dcf1052b9e77508611c98565b93505050505f5f6113b97f30644e72e131a029b85045b68181585d97816a916871ca8d3c208c16d87cfd478061134f5761134e612aac565b5b7f30644e72e131a029b85045b68181585d97816a916871ca8d3c208c16d87cfd478061137e5761137d612aac565b5b8586097f30644e72e131a029b85045b68181585d97816a916871ca8d3c208c16d87cfd47806113b0576113af612aac565b5b87880908611bfc565b90506114467f30644e72e131a029b85045b68181585d97816a916871ca8d3c208c16d87cfd47806113ed576113ec612aac565b5b7f183227397098d014dc2822db40c0ac2ecbc0b548b438e5469e10460b6c3e7ea47f30644e72e131a029b85045b68181585d97816a916871ca8d3c208c16d87cfd478061143d5761143c612aac565b5b84880809611d03565b15915050611455838383611d6d565b8093508194505050828714801561146b57508186145b15611493575f8161147c575f61147f565b60025b60ff1660028b901b1717945087935061150d565b61149c83611c98565b871480156114b157506114ae82611c98565b86145b156114da576001816114c3575f6114c6565b60025b60ff1660028b901b1717945087935061150c565b6040517f7fcdd1f400000000000000000000000000000000000000000000000000000000815260040160405180910390fd5b5b5050505b94509492505050565b5f5f5f60019050604051604081015f7f0251859caefe66b516c5549d3768d1ba94146083cb044026abebc9908991924883527f2c1e789b2dcafdaa6853d0934c4443d223b8f050ce3466d068f2ab7efa29bc0360208401527f13a264f6a5d0e3938bea4e4431d417f2980774db501085ceafd0d7e76a7f128b82527f155351b5ccccb7a37222f2b82fa4a968f33523326364fe52bb87d1ea3f47c6976020830152863590508060408301527f30644e72e131a029b85045b68181585d2833e84879b9709143e1f593f000000181108416935060408260608460075afa8416935060408360808560065afa841693507f03777818388f77b4065a87d01e141b5fec2ee452d1ada3493892aca2c4da5d4082527f0fb2382a8c87c5992ee8385e493ffd96983c8c42c5545a4daaab264f482865b56020830152602087013590508060408301527f30644e72e131a029b85045b68181585d2833e84879b9709143e1f593f000000181108416935060408260608460075afa8416935060408360808560065afa841693508251955060208301519450505050806116e6576040517fa54f8e2700000000000000000000000000000000000000000000000000000000815260040160405180910390fd5b50915091565b5f5f5f8303611700575f5f9150915061181c565b5f6001808516149050600184901c92507f30644e72e131a029b85045b68181585d97816a916871ca8d3c208c16d87cfd478310611769576040517f7fcdd1f400000000000000000000000000000000000000000000000000000000815260040160405180910390fd5b6118067f30644e72e131a029b85045b68181585d97816a916871ca8d3c208c16d87cfd478061179b5761179a612aac565b5b60037f30644e72e131a029b85045b68181585d97816a916871ca8d3c208c16d87cfd47806117cc576117cb612aac565b5b867f30644e72e131a029b85045b68181585d97816a916871ca8d3c208c16d87cfd47806117fc576117fb612aac565b5b8889090908611bfc565b9150801561181a5761181782611c98565b91505b505b915091565b5f5f5f5f5f8614801561183357505f85145b15611849575f5f5f5f9350935093509350611bf3565b5f60018088161490505f6002808916149050600288901c95508694507f30644e72e131a029b85045b68181585d97816a916871ca8d3c208c16d87cfd47861015806118b457507f30644e72e131a029b85045b68181585d97816a916871ca8d3c208c16d87cfd478510155b156118eb576040517f7fcdd1f400000000000000000000000000000000000000000000000000000000815260040160405180910390fd5b5f7f30644e72e131a029b85045b68181585d97816a916871ca8d3c208c16d87cfd478061191b5761191a612aac565b5b60037f30644e72e131a029b85045b68181585d97816a916871ca8d3c208c16d87cfd476119489190612b06565b7f30644e72e131a029b85045b68181585d97816a916871ca8d3c208c16d87cfd478061197757611976612aac565b5b888a090990505f7f30644e72e131a029b85045b68181585d97816a916871ca8d3c208c16d87cfd47806119ad576119ac612aac565b5b887f30644e72e131a029b85045b68181585d97816a916871ca8d3c208c16d87cfd47806119dd576119dc612aac565b5b8a8b090990505f7f30644e72e131a029b85045b68181585d97816a916871ca8d3c208c16d87cfd4780611a1357611a12612aac565b5b887f30644e72e131a029b85045b68181585d97816a916871ca8d3c208c16d87cfd4780611a4357611a42612aac565b5b8a8b090990507f30644e72e131a029b85045b68181585d97816a916871ca8d3c208c16d87cfd4780611a7857611a77612aac565b5b7f30644e72e131a029b85045b68181585d97816a916871ca8d3c208c16d87cfd4780611aa757611aa6612aac565b5b7f30644e72e131a029b85045b68181585d97816a916871ca8d3c208c16d87cfd4780611ad657611ad5612aac565b5b8a860984087f2b149d40ceb8aaae81be18991be06ac3b5b4c5e559dbefa33267e6dc24a138e5089650611bbb7f30644e72e131a029b85045b68181585d97816a916871ca8d3c208c16d87cfd4780611b3157611b30612aac565b5b7f30644e72e131a029b85045b68181585d97816a916871ca8d3c208c16d87cfd4780611b6057611b5f612aac565b5b7f30644e72e131a029b85045b68181585d97816a916871ca8d3c208c16d87cfd4780611b8f57611b8e612aac565b5b8c870984087f2fcd3ac2a640a154eb23960892a85a68f031ca0c8344b23a577dcf1052b9e77508611c98565b9550611bc8878786611d6d565b80975081985050508415611bed57611bdf87611c98565b9650611bea86611c98565b95505b50505050505b92959194509250565b5f611c27827f0c19139cb84c680a6e14116da060561765e05aa45a1c72a34f082305b61f3f52612068565b9050817f30644e72e131a029b85045b68181585d97816a916871ca8d3c208c16d87cfd4780611c5957611c58612aac565b5b82830914611c93576040517f7fcdd1f400000000000000000000000000000000000000000000000000000000815260040160405180910390fd5b919050565b5f7f30644e72e131a029b85045b68181585d97816a916871ca8d3c208c16d87cfd47808381611cca57611cc9612aac565b5b067f30644e72e131a029b85045b68181585d97816a916871ca8d3c208c16d87cfd470381611cfb57611cfa612aac565b5b069050919050565b5f5f611d2f837f0c19139cb84c680a6e14116da060561765e05aa45a1c72a34f082305b61f3f52612068565b9050827f30644e72e131a029b85045b68181585d97816a916871ca8d3c208c16d87cfd4780611d6157611d60612aac565b5b82830914915050919050565b5f5f5f611e0c7f30644e72e131a029b85045b68181585d97816a916871ca8d3c208c16d87cfd4780611da257611da1612aac565b5b7f30644e72e131a029b85045b68181585d97816a916871ca8d3c208c16d87cfd4780611dd157611dd0612aac565b5b8788097f30644e72e131a029b85045b68181585d97816a916871ca8d3c208c16d87cfd4780611e0357611e02612aac565b5b898a0908611bfc565b90508315611e2057611e1d81611c98565b90505b611eab7f30644e72e131a029b85045b68181585d97816a916871ca8d3c208c16d87cfd4780611e5257611e51612aac565b5b7f183227397098d014dc2822db40c0ac2ecbc0b548b438e5469e10460b6c3e7ea47f30644e72e131a029b85045b68181585d97816a916871ca8d3c208c16d87cfd4780611ea257611ea1612aac565b5b848a0809611bfc565b92507f30644e72e131a029b85045b68181585d97816a916871ca8d3c208c16d87cfd4780611edc57611edb612aac565b5b611f177f30644e72e131a029b85045b68181585d97816a916871ca8d3c208c16d87cfd4780611f0e57611f0d612aac565b5b600286096120ff565b860991507f30644e72e131a029b85045b68181585d97816a916871ca8d3c208c16d87cfd4780611f4a57611f49612aac565b5b611f847f30644e72e131a029b85045b68181585d97816a916871ca8d3c208c16d87cfd4780611f7c57611f7b612aac565b5b848509611c98565b7f30644e72e131a029b85045b68181585d97816a916871ca8d3c208c16d87cfd4780611fb357611fb2612aac565b5b858609088614158061202857507f30644e72e131a029b85045b68181585d97816a916871ca8d3c208c16d87cfd4780611fef57611fee612aac565b5b7f30644e72e131a029b85045b68181585d97816a916871ca8d3c208c16d87cfd478061201e5761201d612aac565b5b8385096002098514155b1561205f576040517f7fcdd1f400000000000000000000000000000000000000000000000000000000815260040160405180910390fd5b50935093915050565b5f5f60405160208152602080820152602060408201528460608201528360808201527f30644e72e131a029b85045b68181585d97816a916871ca8d3c208c16d87cfd4760a082015260208160c08360055afa91508051925050806120f8576040517f7fcdd1f400000000000000000000000000000000000000000000000000000000815260040160405180910390fd5b5092915050565b5f61212a827f30644e72e131a029b85045b68181585d97816a916871ca8d3c208c16d87cfd45612068565b905060017f30644e72e131a029b85045b68181585d97816a916871ca8d3c208c16d87cfd478061215d5761215c612aac565b5b82840914612197576040517f7fcdd1f400000000000000000000000000000000000000000000000000000000815260040160405180910390fd5b919050565b6040518060400160405280600290602082028036833780820191505090505090565b6040518060800160405280600490602082028036833780820191505090505090565b604051806103000160405280601890602082028036833780820191505090505090565b6040518060200160405280600190602082028036833780820191505090505090565b5f819050919050565b61223781612225565b82525050565b5f6020820190506122505f83018461222e565b92915050565b5f604051905090565b5f5ffd5b5f5ffd5b61227081612225565b811461227a575f5ffd5b50565b5f8135905061228b81612267565b92915050565b5f5ffd5b5f5ffd5b5f5ffd5b5f5f83601f8401126122b2576122b1612291565b5b8235905067ffffffffffffffff8111156122cf576122ce612295565b5b6020830191508360018202830111156122eb576122ea612299565b5b9250929050565b5f5f5f5f5f6060868803121561230b5761230a61225f565b5b5f6123188882890161227d565b955050602086013567ffffffffffffffff81111561233957612338612263565b5b6123458882890161229d565b9450945050604086013567ffffffffffffffff81111561236857612367612263565b5b6123748882890161229d565b92509250509295509295909350565b5f8190508260206008028201111561239e5761239d612299565b5b92915050565b5f61010082840312156123ba576123b961225f565b5b5f6123c784828501612383565b91505092915050565b5f60049050919050565b5f81905092915050565b5f819050919050565b5f819050919050565b6123ff816123ed565b82525050565b5f61241083836123f6565b60208301905092915050565b5f602082019050919050565b612431816123d0565b61243b81846123da565b9250612446826123e4565b805f5b8381101561247657815161245d8782612405565b96506124688361241c565b925050600181019050612449565b505050505050565b5f6080820190506124915f830184612428565b92915050565b5f5f602083850312156124ad576124ac61225f565b5b5f83013567ffffffffffffffff8111156124ca576124c9612263565b5b6124d68582860161229d565b92509250509250929050565b5f819050826020600202820111156124fd576124fc612299565b5b92915050565b5f5f610140838503121561251a5761251961225f565b5b5f61252785828601612383565b925050610100612539858286016124e2565b9150509250929050565b5f8190508260206004028201111561255e5761255d612299565b5b92915050565b5f5f60c0838503121561257a5761257961225f565b5b5f61258785828601612543565b9250506080612598858286016124e2565b9150509250929050565b5f81519050919050565b5f82825260208201905092915050565b8281835e5f83830152505050565b5f601f19601f8301169050919050565b5f6125e4826125a2565b6125ee81856125ac565b93506125fe8185602086016125bc565b612607816125ca565b840191505092915050565b5f6020820190508181035f83015261262a81846125da565b905092915050565b5f5ffd5b5f5ffd5b5f5f8585111561264d5761264c612632565b5b8386111561265e5761265d612636565b5b6001850283019150848603905094509492505050565b5f82905092915050565b5f7fffffffff0000000000000000000000000000000000000000000000000000000082169050919050565b5f82821b905092915050565b5f6126c08383612674565b826126cb813561267e565b9250600482101561270b576127067fffffffff00000000000000000000000000000000000000000000000000000000836004036008026126a9565b831692505b505092915050565b61271c8161267e565b82525050565b5f6040820190506127355f830185612713565b6127426020830184612713565b9392505050565b7f4e487b71000000000000000000000000000000000000000000000000000000005f52603260045260245ffd5b7f4e487b71000000000000000000000000000000000000000000000000000000005f52604160045260245ffd5b6127ac826125ca565b810181811067ffffffffffffffff821117156127cb576127ca612776565b5b80604052505050565b5f6127dd612256565b90506127e982826127a3565b919050565b5f67ffffffffffffffff82111561280857612807612776565b5b602082029050919050565b61281c816123ed565b8114612826575f5ffd5b50565b5f8135905061283781612813565b92915050565b5f61284f61284a846127ee565b6127d4565b9050806020840283018581111561286957612868612299565b5b835b81811015612892578061287e8882612829565b84526020840193505060208101905061286b565b5050509392505050565b5f82601f8301126128b0576128af612291565b5b60086128bd84828561283d565b91505092915050565b5f61010082840312156128dc576128db61225f565b5b5f6128e98482850161289c565b91505092915050565b5f60089050919050565b5f81905092915050565b5f819050919050565b5f602082019050919050565b612924816128f2565b61292e81846128fc565b925061293982612906565b805f5b838110156129695781516129508782612405565b965061295b8361290f565b92505060018101905061293c565b505050505050565b5f60029050919050565b5f81905092915050565b5f819050919050565b5f602082019050919050565b6129a381612971565b6129ad818461297b565b92506129b882612985565b805f5b838110156129e85781516129cf8782612405565b96506129da8361298e565b9250506001810190506129bb565b505050505050565b5f61014082019050612a045f83018561291b565b612a1261010083018461299a565b9392505050565b5f81905092915050565b828183375f83830152505050565b5f612a3c8385612a19565b9350612a49838584612a23565b82840190509392505050565b5f612a61828486612a31565b91508190509392505050565b5f81519050612a7b81612267565b92915050565b5f60208284031215612a9657612a9561225f565b5b5f612aa384828501612a6d565b91505092915050565b7f4e487b71000000000000000000000000000000000000000000000000000000005f52601260045260245ffd5b7f4e487b71000000000000000000000000000000000000000000000000000000005f52601160045260245ffd5b5f612b10826123ed565b9150612b1b836123ed565b9250828203905081811115612b3357612b32612ad9565b5b9291505056fea2646970667358221220d9108c0ce3403e8c6cc3afdba8ea2c210a8904770a28bfb8347cd544cd5276cf64736f6c634300081e0033","linkReferences":{}},"methodIdentifiers":{"VERIFIER_HASH()":"2a510436","VERSION()":"ffa1ad74","Verify(uint256[8],uint256[2])":"eddf243c","compressProof(uint256[8])":"44f63692","hashPublicValues(bytes)":"6b61d8e7","verifyCompressedProof(uint256[4],uint256[2])":"f11817b2","verifyProof(bytes32,bytes,bytes)":"41493c60"},"id":31}