{"abi":[{"type":"function","name":"VERIFIER_HASH","inputs":[],"outputs":[{"name":"","type":"bytes32","internalType":"bytes32"}],"stateMutability":"pure"},{"type":"function","name":"VERSION","inputs":[],"outputs":[{"name":"","type":"string","internalType":"string"}],"stateMutability":"pure"},{"type":"function","name":"Verify","inputs":[{"name":"proof","type":"bytes","internalType":"bytes"},{"name":"public_inputs","type":"uint256[]","internalType":"uint256[]"}],"outputs":[{"name":"success","type":"bool","internalType":"bool"}],"stateMutability":"view"},{"type":"function","name":"hashPublicValues","inputs":[{"name":"publicValues","type":"bytes","internalType":"bytes"}],"outputs":[{"name":"","type":"bytes32","internalType":"bytes32"}],"stateMutability":"pure"},{"type":"function","name":"verifyProof","inputs":[{"name":"programVKey","type":"bytes32","internalType":"bytes32"},{"name":"publicValues","type":"bytes","internalType":"bytes"},{"name":"proofBytes","type":"bytes","internalType":"bytes"}],"outputs":[],"stateMutability":"view"},{"type":"error","name":"InvalidProof","inputs":[]},{"type":"error","name":"WrongVerifierSelector","inputs":[{"name":"received","type":"bytes4","internalType":"bytes4"},{"name":"expected","type":"bytes4","internalType":"bytes4"}]}],"bytecode":{"object":"0x6080604052348015600e575f5ffd5b5061344c8061001c5f395ff3fe608060405234801561000f575f5ffd5b5060043610610055575f3560e01c80632a5104361461005957806341493c60146100775780636b61d8e7146100935780637e4f7a8a146100c3578063ffa1ad74146100f3575b5f5ffd5b610061610111565b60405161006e9190612d6c565b60405180910390f35b610091600480360381019061008c9190612e18565b61013a565b005b6100ad60048036038101906100a89190612ea9565b61035c565b6040516100ba9190612d6c565b60405180910390f35b6100dd60048036038101906100d89190612f49565b6103d9565b6040516100ea9190612fe1565b60405180910390f35b6100fb612d17565b604051610108919061306a565b60405180910390f35b5f7f54bdcae3adb83d4ce9ed91d99a31da3086e2b117abf3685164e9f28d78670b055f1b905090565b5f82825f9060049261014e93929190613092565b90610159919061310d565b90505f610164610111565b9050807bffffffffffffffffffffffffffffffffffffffffffffffffffffffff1916827bffffffffffffffffffffffffffffffffffffffffffffffffffffffff1916146101ea5781816040517f988066a10000000000000000000000000000000000000000000000000000000081526004016101e192919061317a565b60405180910390fd5b5f6101f5878761035c565b90505f600267ffffffffffffffff811115610213576102126131a1565b5b6040519080825280602002602001820160405280156102415781602001602082028036833780820191505090505b509050885f1c815f8151811061025a576102596131ce565b5b602002602001018181525050815f1c8160018151811061027d5761027c6131ce565b5b6020026020010181815250505f3073ffffffffffffffffffffffffffffffffffffffff16637e4f7a8a888860049080926102b993929190613092565b856040518463ffffffff1660e01b81526004016102d893929190613305565b602060405180830381865afa1580156102f3573d5f5f3e3d5ffd5b505050506040513d601f19601f820116820180604052508101906103179190613366565b905080610350576040517f09bde33900000000000000000000000000000000000000000000000000000000815260040160405180910390fd5b50505050505050505050565b5f7f1fffffffffffffffffffffffffffffffffffffffffffffffffffffffffffffff5f1b600284846040516103929291906133bf565b602060405180830381855afa1580156103ad573d5f5f3e3d5ffd5b5050506040513d601f19601f820116820180604052508101906103d091906133eb565b16905092915050565b5f60405161024081016103eb8461087c565b6103f58585610890565b6103fe866108e2565b610407876108ff565b5f61041386868a610aad565b905061041e81610df3565b905061042a8189610e5a565b90506104368189610eef565b60608301517f30644e72e131a029b85045b68181585d2833e84879b9709143e1f593f000000160017f30644e72e131a029b85045b68181585d2833e84879b9709143e1f593f00000010361048f85630100000085612c9e565b08806101c08601526104a284888a610f5d565b6104ad85898d6112be565b7f30644e72e131a029b85045b68181585d2833e84879b9709143e1f593f00000018282089150816101a08801526104e261166d565b6104eb8c612839565b6104f48c612779565b6104fd8c612374565b6105068c611e72565b61050f8c611bd1565b6105188c6117c1565b6102008701519750612d08565b6040517f08c379a000000000000000000000000000000000000000000000000000000000815260206004820152601d60248201527f77726f6e67206e756d626572206f66207075626c696320696e707574730000006044820152606481fd5b6040517f08c379a000000000000000000000000000000000000000000000000000000000815260206004820152600c60248201527f6572726f72206d6f6420657870000000000000000000000000000000000000006044820152606481fd5b6040517f08c379a000000000000000000000000000000000000000000000000000000000815260206004820152601260248201527f6572726f72206563206f7065726174696f6e00000000000000000000000000006044820152606481fd5b6040517f08c379a000000000000000000000000000000000000000000000000000000000815260206004820152601860248201527f696e707574732061726520626967676572207468616e207200000000000000006044820152606481fd5b6040517f08c379a000000000000000000000000000000000000000000000000000000000815260206004820152601060248201527f77726f6e672070726f6f662073697a65000000000000000000000000000000006044820152606481fd5b6040517f08c379a000000000000000000000000000000000000000000000000000000000815260206004820152601660248201527f6f70656e696e677320626967676572207468616e2072000000000000000000006044820152606481fd5b6040517f08c379a000000000000000000000000000000000000000000000000000000000815260206004820152600d60248201527f6572726f722070616972696e67000000000000000000000000000000000000006044820152606481fd5b6040517f08c379a000000000000000000000000000000000000000000000000000000000815260206004820152600c60248201527f6572726f722076657269667900000000000000000000000000000000000000006044820152606481fd5b6040517f08c379a000000000000000000000000000000000000000000000000000000000815260206004820152601460248201527f6572726f722072616e646f6d2067656e206b7a670000000000000000000000006044820152606481fd5b6002811461088d5761088c610525565b5b50565b5f5b818110156108dd577f30644e72e131a029b85045b68181585d2833e84879b9709143e1f593f0000000833511156108cc576108cb610642565b5b602083019250600181019050610892565b505050565b6060600102610300018082146108fb576108fa6106a1565b5b5050565b61018081017f30644e72e131a029b85045b68181585d2833e84879b9709143e1f593f00000008135111561093657610935610700565b5b6101a0820190507f30644e72e131a029b85045b68181585d2833e84879b9709143e1f593f00000008135111561096f5761096e610700565b5b6101c0820190507f30644e72e131a029b85045b68181585d2833e84879b9709143e1f593f0000000813511156109a8576109a7610700565b5b6101e0820190507f30644e72e131a029b85045b68181585d2833e84879b9709143e1f593f0000000813511156109e1576109e0610700565b5b610200820190507f30644e72e131a029b85045b68181585d2833e84879b9709143e1f593f000000081351115610a1a57610a19610700565b5b610260820190507f30644e72e131a029b85045b68181585d2833e84879b9709143e1f593f000000081351115610a5357610a52610700565b5b610300820190505f5b6001811015610aa8577f30644e72e131a029b85045b68181585d2833e84879b9709143e1f593f000000082351115610a9757610a96610700565b5b602082019150600181019050610a5c565b505050565b5f60405161024081016467616d6d6181527f231c22c1bdb73ea856c8df419a1a3d5cd64756eea7d3ff88445191766547df0a60208201527f26662addc27704fced94738f32c04a0ce7c738fdf192fc38c66ded0da05ff25e60408201527f274bc38569b26f0dbb6f68e765fd534e569e181510f7616a2d37a2ea9eaf117460608201527f16eee348cf12b860f9af358a2dd9a49947beb54d9d1aef8a40516f4f43a3d12b60808201527f2eb82c18a71af5619f50e44c2c9b8460c13989c9682bf96226041fc85cf3cbef60a08201527f0d8953351ec8c2b0d33b117538917cd78e61209d19af2619edec609fb4fd228660c08201527f0ecf753896753477637a37c8ec1ccdd1e5fe9c632a391598edd33812e6e64eb860e08201527edcf51acabe496ffa81d9105d7ce59e0c310db60373c8d16040548894bacfc66101008201527f231c051b766676ac5b0c5348e3d2811c28ac0092ecb0dc2a2d28115531262ecf6101208201527f08549442675c42a8bfd831e8153972dfe4805e358fff8c9a4e085a61a1895a1c6101408201527f0d004ee4d050057e4cd46126f4d2a6c9623a0ede72825fceed853f98d4cf69176101608201527f02b4d73b2f70de0117bbe5f9a509939400043d2c943965fda9a493ee964be7c26101808201527f17d7d1377050e977234a2303b1535fb4769fe6dc4d18cce3e0b7c7c94383a15c6101a08201527f29ccbb99014f4125fffb7c7e88ee167a7212c7e521e9dcebdc9fbfb0377d82096101c08201527f12161d51771ac2487cd60c594f07321d620d9375d6e44f1ffdf8e806a61545006101e08201527f01a748c5de58f154c506fa3e158b3d0e61907f0e3c26e1b6ad430be18445289f6102008201527f150d75d2df77de0c6fbae987a615ad86c1a4ef03ab5d741499d0f2885ae398a16102208201527f29cfa73470fc7a3cf075227c707b1af1ab2c44ca80224419715ca4c2ab3bcb6161024082015261026081016020860280888337808201915060c0808784378083019250816102c50160406001028101905060208582601b880160025afa80610db957610db86107be565b5b855197507f30644e72e131a029b85045b68181585d2833e84879b9709143e1f593f000000188066040880152505050505050509392505050565b5f60405161024060405101636265746181528360208201526020816024601c840160025afa80610e2657610e256107be565b5b815193507f30644e72e131a029b85045b68181585d2833e84879b9709143e1f593f000000184066020840152505050919050565b5f60405161024060405101606564616c70686182526020820186815260208101905061032086016001604002808284378083019250808401935060406102208901843760208585601b880160025afa80610eb757610eb66107be565b5b855197507f30644e72e131a029b85045b68181585d2833e84879b9709143e1f593f000000188065f8801525050505050505092915050565b60405161024060405101637a657461815283602082015260c0808401604083013760208160e4601c840160025afa80610f2b57610f2a6107be565b5b81517f30644e72e131a029b85045b68181585d2833e84879b9709143e1f593f000000181066060850152505050505050565b5f60405160608101516101c082015186610f7981888486610ff6565b5f5f5b88811015610fe9577f30644e72e131a029b85045b68181585d2833e84879b9709143e1f593f0000001883584510991507f30644e72e131a029b85045b68181585d2833e84879b9709143e1f593f00000018288089650602083019250602088019750600181019050610f7c565b5050505050509392505050565b7f30644e72e131a029b85045b68181585d2833e84879b9709143e1f593f00000017f30644e427ce32d4886b01bfe313ba1dba6db8b2045d128178a7164500e0a6c1183096001855f5b868110156110e6577f30644e72e131a029b85045b68181585d2833e84879b9709143e1f593f0000001837f30644e72e131a029b85045b68181585d2833e84879b9709143e1f593f000000103860882527f30644e72e131a029b85045b68181585d2833e84879b9709143e1f593f00000017f0c9fabc7845d50d2852e2a0371c6441f145e0db82e8326961c25f1e3e32b045b8409925060208201915060018101905061103f565b506110f28187896111ae565b869050600191505f5b868110156111a4577f30644e72e131a029b85045b68181585d2833e84879b9709143e1f593f0000001837f30644e72e131a029b85045b68181585d2833e84879b9709143e1f593f0000001868551090982526020820191507f30644e72e131a029b85045b68181585d2833e84879b9709143e1f593f00000017f0c9fabc7845d50d2852e2a0371c6441f145e0db82e8326961c25f1e3e32b045b840992506001810190506110fb565b5050505050505050565b600183525f5f5b838110156112035781850151828401517f30644e72e131a029b85045b68181585d2833e84879b9709143e1f593f00000018183099050602084019350808488015250506001810190506111b5565b50602081038201915080840193506112436020850160027f30644e72e131a029b85045b68181585d2833e84879b9709143e1f593f0000001038651612c9e565b5f5b848110156112b65760208603955083517f30644e72e131a029b85045b68181585d2833e84879b9709143e1f593f0000001875184098086527f30644e72e131a029b85045b68181585d2833e84879b9709143e1f593f000000182850993506020860395505050600181019050611245565b505050505050565b5f60405160608101516101c082015161032085015f5f6112e48a6020850135853561146e565b91506112f78a6288af5f8b01868861132f565b90507f30644e72e131a029b85045b68181585d2833e84879b9709143e1f593f000000180828409880896505050505050509392505050565b5f61135b85857f0c9fabc7845d50d2852e2a0371c6441f145e0db82e8326961c25f1e3e32b045b612c9e565b7f30644e72e131a029b85045b68181585d2833e84879b9709143e1f593f0000001817f30644e72e131a029b85045b68181585d2833e84879b9709143e1f593f000000103840894507f30644e72e131a029b85045b68181585d2833e84879b9709143e1f593f00000017f30644e427ce32d4886b01bfe313ba1dba6db8b2045d128178a7164500e0a6c11820990506114178660027f30644e72e131a029b85045b68181585d2833e84879b9709143e1f593f00000010387612c9e565b94507f30644e72e131a029b85045b68181585d2833e84879b9709143e1f593f000000185820990507f30644e72e131a029b85045b68181585d2833e84879b9709143e1f593f0000001848209915050949350505050565b5f5f84525f60208501528160408501528260608501525f6080850153603060818501535f60828501536042608385015360536084850153604260858501536032608685015360326087850153602d608885015360506089850153606c608a850153606f608b850153606e608c850153606b608d850153600b608e850153602084608f8660025afa80611503576115026107be565b5b8451600160208701536042602187015360536022870153604260238701536032602487015360326025870153602d602687015360506027870153606c6028870153606f6029870153606e602a870153606b602b870153600b602c870153602086602d8860025afa91508161157a576115796107be565b5b808651186020870152600260408701536042604187015360536042870153604260438701536032604487015360326045870153602d604687015360506047870153606c6048870153606f6049870153606e604a870153606b604b870153600b604c87015360208601602081602d8360025afa9250826115fc576115fb6107be565b5b7f30644e72e131a029b85045b68181585d2833e84879b9709143e1f593f00000017001000000000000000000000000000000008851099350602087015160801c7f30644e72e131a029b85045b68181585d2833e84879b9709143e1f593f00000018186089450505050509392505050565b604051610240604051016101c08201517f30644e72e131a029b85045b68181585d2833e84879b9709143e1f593f000000160017f30644e72e131a029b85045b68181585d2833e84879b9709143e1f593f0000001036060850151086116f68360027f30644e72e131a029b85045b68181585d2833e84879b9709143e1f593f00000010383612c9e565b90507f30644e72e131a029b85045b68181585d2833e84879b9709143e1f593f00000017f30644e427ce32d4886b01bfe313ba1dba6db8b2045d128178a7164500e0a6c11820990507f30644e72e131a029b85045b68181585d2833e84879b9709143e1f593f000000182820991505f8401517f30644e72e131a029b85045b68181585d2833e84879b9709143e1f593f000000181840992507f30644e72e131a029b85045b68181585d2833e84879b9709143e1f593f000000181840992508260808601525050505050565b60405161024081016101608201518152610180820151602082015261028083013560408201526102a08301356060820152610220830135608082015261024083013560a08201526102c083013560c08201526102e083013560e082015260608201516101008201526101e08201516101208201526020816101408360025afa8061184e5761184d61081d565b5b7f30644e72e131a029b85045b68181585d2833e84879b9709143e1f593f000000182510690508160408101925061028085013581526102a0850135602082015261189e83836102c0880184612bfa565b61016084016118b38484610220890184612bfa565b61014085016118c784610260890183612c4c565b846040810195507f1fa4be93b5e7f7e674d5059b63554fab99638b304ed8310e9fa44c281ac9b03b81527f1a01ae7fac6228e39d3cb5a5e71fd31160f3241e79a5f48ffb3737e6c389b72160208201528151604082015260408160608360075afa80611936576119356107be565b5b6020820180517f30644e72e131a029b85045b68181585d97816a916871ca8d3c208c16d87cfd4703815261196c88848788612ac6565b876040890198506119878960608c01516102808e0184612b75565b7f30644e72e131a029b85045b68181585d2833e84879b9709143e1f593f00000017f0c9fabc7845d50d2852e2a0371c6441f145e0db82e8326961c25f1e3e32b045b60608c0151097f30644e72e131a029b85045b68181585d2833e84879b9709143e1f593f0000001818a099850611a058a8a6102c08f0185612bfa565b611a118a83898a612ac6565b6020880180517f30644e72e131a029b85045b68181585d97816a916871ca8d3c208c16d87cfd4703815287518b52602088015160208c01527f198e9393920d483a7260bfb731fb5d25f1aa493335a9e71297e485b7aef312c260408c01527f1800deef121f1e76426a00665e5c4479674322d4f75edadd46debd5cd992f6ed60608c01527f090689d0585ff075ec9e99ad690c3395bc4b313370b38ef355acdadcd122975b60808c01527f12c85ea5db8c6deb4aab71808dcb408fe3d1e7690c43d37b4ce6cc0166fa7daa60a08c0152885160c08c0152602089015160e08c01527f22f1acbb03c4508760c2430af35865e7cdf9f3eb1224504fdcc3708ddb954a486101008c01527f2a344fad01c2ed0ed73142ae1752429eaea515c6f3f6b941103cc21c2308e1cb6101208c01527f159f15b842ba9c8449aa3268f981010d4c7142e5193473d80b464e964845c3f86101408c01527f0efd30ac7b6f8d0d3ccbc2207587c2acbad1532dc0293f0d034cf8258cd428b36101608c0152611b978b611ba6565b50505050505050505050505050565b60405160205f6101808460085afa80611bc257611bc161075f565b5b5f518061020084015250505050565b6040516102406040510160208101604082016101e084015180610160860160e08701518152610100870151610180880152610120870151610140880152611c1c86835f8b0184612bfa565b611c2f826101808a016101408a01612c4c565b7f30644e72e131a029b85045b68181585d2833e84879b9709143e1f593f00000018383099150611c64868360408b0184612bfa565b611c77826101a08a016101408a01612c4c565b7f30644e72e131a029b85045b68181585d2833e84879b9709143e1f593f00000018383099150611cac868360808b0184612bfa565b611cbf826101c08a016101408a01612c4c565b7f30644e72e131a029b85045b68181585d2833e84879b9709143e1f593f000000183830991507f231c22c1bdb73ea856c8df419a1a3d5cd64756eea7d3ff88445191766547df0a86527f26662addc27704fced94738f32c04a0ce7c738fdf192fc38c66ded0da05ff25e8552611d3784838884612ba8565b611d4a826101e08a016101408a01612c4c565b7f30644e72e131a029b85045b68181585d2833e84879b9709143e1f593f000000183830991507f274bc38569b26f0dbb6f68e765fd534e569e181510f7616a2d37a2ea9eaf117486527f16eee348cf12b860f9af358a2dd9a49947beb54d9d1aef8a40516f4f43a3d12b8552611dc284838884612ba8565b611dd5826102008a016101408a01612c4c565b61030088017f30644e72e131a029b85045b68181585d2833e84879b9709143e1f593f000000184840992507f150d75d2df77de0c6fbae987a615ad86c1a4ef03ab5d741499d0f2885ae398a187527f29cfa73470fc7a3cf075227c707b1af1ab2c44ca80224419715ca4c2ab3bcb618652611e5285848985612ba8565b611e6183826101408b01612c4c565b602081019050505050505050505050565b604051610240604051016467616d6d6181526060820151602082015260e08201516040820152610100820151606082015260c05f840160808301377f231c22c1bdb73ea856c8df419a1a3d5cd64756eea7d3ff88445191766547df0a6101408201527f26662addc27704fced94738f32c04a0ce7c738fdf192fc38c66ded0da05ff25e6101608201527f274bc38569b26f0dbb6f68e765fd534e569e181510f7616a2d37a2ea9eaf11746101808201527f16eee348cf12b860f9af358a2dd9a49947beb54d9d1aef8a40516f4f43a3d12b6101a08201526101c07f150d75d2df77de0c6fbae987a615ad86c1a4ef03ab5d741499d0f2885ae398a1818301527f29cfa73470fc7a3cf075227c707b1af1ab2c44ca80224419715ca4c2ab3bcb616020820183015260408101905061012083015181830152610180840135602082018301526101a0840135604082018301526101c0840135606082018301526101e08401356080820183015261020084013560a0820183015260c081018201610300850160206001028183376020600102820191506102608601358252601b600360010260140160208102600501905060206101e088018284890160025afa8061203e5761203d6107be565b5b7f30644e72e131a029b85045b68181585d2833e84879b9709143e1f593f00000016101e0890151066101e0890152505050505050505050565b604051610240604051017f0ecf753896753477637a37c8ec1ccdd1e5fe9c632a391598edd33812e6e64eb881527edcf51acabe496ffa81d9105d7ce59e0c310db60373c8d16040548894bacfc660208201526120e0604082016101808501358360e08601612b42565b7f231c051b766676ac5b0c5348e3d2811c28ac0092ecb0dc2a2d28115531262ecf81527f08549442675c42a8bfd831e8153972dfe4805e358fff8c9a4e085a61a1895a1c6020820152612140604082016101a08501358360e08601612ba8565b7f30644e72e131a029b85045b68181585d2833e84879b9709143e1f593f00000016101a0840135610180850135097f0d004ee4d050057e4cd46126f4d2a6c9623a0ede72825fceed853f98d4cf691782527f02b4d73b2f70de0117bbe5f9a509939400043d2c943965fda9a493ee964be7c260208301526121c960408301828460e08701612ba8565b7f17d7d1377050e977234a2303b1535fb4769fe6dc4d18cce3e0b7c7c94383a15c82527f29ccbb99014f4125fffb7c7e88ee167a7212c7e521e9dcebdc9fbfb0377d82096020830152612229604083016101c08601358460e08701612ba8565b7f12161d51771ac2487cd60c594f07321d620d9375d6e44f1ffdf8e806a615450082527f01a748c5de58f154c506fa3e158b3d0e61907f0e3c26e1b6ad430be18445289f6020830152612287604083018360e0860160e08701612ac6565b610300840161032085015f5b60018110156122d45781358552602082013560208601526122bd6040860184358760e08a01612ba8565b602083019250604082019150600181019050612293565b507f2eb82c18a71af5619f50e44c2c9b8460c13989c9682bf96226041fc85cf3cbef84527f0d8953351ec8c2b0d33b117538917cd78e61209d19af2619edec609fb4fd2286602085015261233060408501888660e08901612ba8565b6102208601358452610240860135602085015261235560408501898660e08901612ba8565b61236a8460a0870160e0880160e08901612ac6565b5050505050505050565b6040516020810151604082015160608301515f8401517f30644e72e131a029b85045b68181585d2833e84879b9709143e1f593f000000184610260880135097f30644e72e131a029b85045b68181585d2833e84879b9709143e1f593f00000016101e088013586097f30644e72e131a029b85045b68181585d2833e84879b9709143e1f593f0000001610180890135820890507f30644e72e131a029b85045b68181585d2833e84879b9709143e1f593f000000185820890507f30644e72e131a029b85045b68181585d2833e84879b9709143e1f593f000000161020089013587097f30644e72e131a029b85045b68181585d2833e84879b9709143e1f593f00000016101a08a0135820890507f30644e72e131a029b85045b68181585d2833e84879b9709143e1f593f000000186820890507f30644e72e131a029b85045b68181585d2833e84879b9709143e1f593f00000018284097f30644e72e131a029b85045b68181585d2833e84879b9709143e1f593f000000182820990507f30644e72e131a029b85045b68181585d2833e84879b9709143e1f593f000000185820990507f30644e72e131a029b85045b68181585d2833e84879b9709143e1f593f0000001600580097f30644e72e131a029b85045b68181585d2833e84879b9709143e1f593f0000001878a097f30644e72e131a029b85045b68181585d2833e84879b9709143e1f593f00000016101808d0135820895507f30644e72e131a029b85045b68181585d2833e84879b9709143e1f593f000000189870895507f30644e72e131a029b85045b68181585d2833e84879b9709143e1f593f00000016005820994507f30644e72e131a029b85045b68181585d2833e84879b9709143e1f593f00000016101a08d0135860894507f30644e72e131a029b85045b68181585d2833e84879b9709143e1f593f000000189860894507f30644e72e131a029b85045b68181585d2833e84879b9709143e1f593f000000182820993507f30644e72e131a029b85045b68181585d2833e84879b9709143e1f593f00000016101c08d0135850893507f30644e72e131a029b85045b68181585d2833e84879b9709143e1f593f000000189850893507f30644e72e131a029b85045b68181585d2833e84879b9709143e1f593f00000018587097f30644e72e131a029b85045b68181585d2833e84879b9709143e1f593f00000018582099050807f30644e72e131a029b85045b68181585d2833e84879b9709143e1f593f00000010390507f30644e72e131a029b85045b68181585d2833e84879b9709143e1f593f000000188820990507f30644e72e131a029b85045b68181585d2833e84879b9709143e1f593f000000160808d01518208905061276a81858f612077565b50505050505050505050505050565b60405160026301000000016102406040510161279a81836060860151612c9e565b6127ad8282610140880160a08801612b75565b6127c382610100870160a0870160a08801612b04565b6127d5828260a0870160a08801612b42565b6127ea8260c0870160a0870160a08801612b04565b612801826101c086015160a0870160a08801612b42565b60c0840151807f30644e72e131a029b85045b68181585d97816a916871ca8d3c208c16d87cfd470390508060c0860152505050505050565b6040515f7f30644e72e131a029b85045b68181585d2833e84879b9709143e1f593f000000160208301516101e08501350990507f30644e72e131a029b85045b68181585d2833e84879b9709143e1f593f00000016040830151820890507f30644e72e131a029b85045b68181585d2833e84879b9709143e1f593f0000001610180840135820890505f7f30644e72e131a029b85045b68181585d2833e84879b9709143e1f593f000000160208401516102008601350990507f30644e72e131a029b85045b68181585d2833e84879b9709143e1f593f00000016040840151820890507f30644e72e131a029b85045b68181585d2833e84879b9709143e1f593f00000016101a0850135820890505f7f30644e72e131a029b85045b68181585d2833e84879b9709143e1f593f000000160408501516101c08701350890507f30644e72e131a029b85045b68181585d2833e84879b9709143e1f593f000000182840992507f30644e72e131a029b85045b68181585d2833e84879b9709143e1f593f000000181840992507f30644e72e131a029b85045b68181585d2833e84879b9709143e1f593f00000015f850151840992507f30644e72e131a029b85045b68181585d2833e84879b9709143e1f593f0000001610260860135840992507f30644e72e131a029b85045b68181585d2833e84879b9709143e1f593f00000016101a08501518408925060808401519150817f30644e72e131a029b85045b68181585d2833e84879b9709143e1f593f00000010391507f30644e72e131a029b85045b68181585d2833e84879b9709143e1f593f00000018284089250827f30644e72e131a029b85045b68181585d2833e84879b9709143e1f593f0000001039250826101208501525050505050565b8151845260208201516020850152825160408501526020830151606085015260408160808660065afa80612afd57612afc6105e3565b5b5050505050565b8151845260208201516020850152823560408501526020830135606085015260408160808660065afa80612b3b57612b3a6105e3565b5b5050505050565b815184526020820151602085015282604085015260408160608660075afa80612b6e57612b6d6105e3565b5b5050505050565b813584526020820135602085015282604085015260408160608660075afa80612ba157612ba06105e3565b5b5050505050565b815184526020820151602085015282604085015260408460608660075afa815160408601526020820151606086015260408260808760065afa8116905080612bf357612bf26105e3565b5b5050505050565b813584526020820135602085015282604085015260408460608660075afa815160408601526020820151606086015260408260808760065afa8116905080612c4557612c446105e3565b5b5050505050565b7f30644e72e131a029b85045b68181585d2833e84879b9709143e1f593f0000001838335097f30644e72e131a029b85045b68181585d2833e84879b9709143e1f593f000000181835108825250505050565b5f60208452602080850152602060408501528160608501528260808501527f30644e72e131a029b85045b68181585d2833e84879b9709143e1f593f000000160a085015260208460c08660055afa5f8103612cfc57612cfb610584565b5b84519150509392505050565b50505050505050949350505050565b60606040518060400160405280600681526020017f76332e302e300000000000000000000000000000000000000000000000000000815250905090565b5f819050919050565b612d6681612d54565b82525050565b5f602082019050612d7f5f830184612d5d565b92915050565b5f5ffd5b5f5ffd5b612d9681612d54565b8114612da0575f5ffd5b50565b5f81359050612db181612d8d565b92915050565b5f5ffd5b5f5ffd5b5f5ffd5b5f5f83601f840112612dd857612dd7612db7565b5b8235905067ffffffffffffffff811115612df557612df4612dbb565b5b602083019150836001820283011115612e1157612e10612dbf565b5b9250929050565b5f5f5f5f5f60608688031215612e3157612e30612d85565b5b5f612e3e88828901612da3565b955050602086013567ffffffffffffffff811115612e5f57612e5e612d89565b5b612e6b88828901612dc3565b9450945050604086013567ffffffffffffffff811115612e8e57612e8d612d89565b5b612e9a88828901612dc3565b92509250509295509295909350565b5f5f60208385031215612ebf57612ebe612d85565b5b5f83013567ffffffffffffffff811115612edc57612edb612d89565b5b612ee885828601612dc3565b92509250509250929050565b5f5f83601f840112612f0957612f08612db7565b5b8235905067ffffffffffffffff811115612f2657612f25612dbb565b5b602083019150836020820283011115612f4257612f41612dbf565b5b9250929050565b5f5f5f5f60408587031215612f6157612f60612d85565b5b5f85013567ffffffffffffffff811115612f7e57612f7d612d89565b5b612f8a87828801612dc3565b9450945050602085013567ffffffffffffffff811115612fad57612fac612d89565b5b612fb987828801612ef4565b925092505092959194509250565b5f8115159050919050565b612fdb81612fc7565b82525050565b5f602082019050612ff45f830184612fd2565b92915050565b5f81519050919050565b5f82825260208201905092915050565b8281835e5f83830152505050565b5f601f19601f8301169050919050565b5f61303c82612ffa565b6130468185613004565b9350613056818560208601613014565b61305f81613022565b840191505092915050565b5f6020820190508181035f8301526130828184613032565b905092915050565b5f5ffd5b5f5ffd5b5f5f858511156130a5576130a461308a565b5b838611156130b6576130b561308e565b5b6001850283019150848603905094509492505050565b5f82905092915050565b5f7fffffffff0000000000000000000000000000000000000000000000000000000082169050919050565b5f82821b905092915050565b5f61311883836130cc565b8261312381356130d6565b925060048210156131635761315e7fffffffff0000000000000000000000000000000000000000000000000000000083600403600802613101565b831692505b505092915050565b613174816130d6565b82525050565b5f60408201905061318d5f83018561316b565b61319a602083018461316b565b9392505050565b7f4e487b71000000000000000000000000000000000000000000000000000000005f52604160045260245ffd5b7f4e487b71000000000000000000000000000000000000000000000000000000005f52603260045260245ffd5b5f82825260208201905092915050565b828183375f83830152505050565b5f61322483856131fb565b935061323183858461320b565b61323a83613022565b840190509392505050565b5f81519050919050565b5f82825260208201905092915050565b5f819050602082019050919050565b5f819050919050565b6132808161326e565b82525050565b5f6132918383613277565b60208301905092915050565b5f602082019050919050565b5f6132b382613245565b6132bd818561324f565b93506132c88361325f565b805f5b838110156132f85781516132df8882613286565b97506132ea8361329d565b9250506001810190506132cb565b5085935050505092915050565b5f6040820190508181035f83015261331e818587613219565b9050818103602083015261333281846132a9565b9050949350505050565b61334581612fc7565b811461334f575f5ffd5b50565b5f815190506133608161333c565b92915050565b5f6020828403121561337b5761337a612d85565b5b5f61338884828501613352565b91505092915050565b5f81905092915050565b5f6133a68385613391565b93506133b383858461320b565b82840190509392505050565b5f6133cb82848661339b565b91508190509392505050565b5f815190506133e581612d8d565b92915050565b5f60208284031215613400576133ff612d85565b5b5f61340d848285016133d7565b9150509291505056fea2646970667358221220d850dd06f86fd2e06ba137b8559d8607e0e18e2688df436c421c535b67b5673864736f6c634300081e0033","linkReferences":{}},"methodIdentifiers":{"VERIFIER_HASH()":"2a510436","VERSION()":"ffa1ad74","Verify(bytes,uint256[])":"7e4f7a8a","hashPublicValues(bytes)":"6b61d8e7","verifyProof(bytes32,bytes,bytes)":"41493c60"},"id":31}