{"abi":[{"type":"constructor","inputs":[{"name":"_verifier","type":"address","internalType":"address"},{"name":"_depositVkey","type":"bytes32","internalType":"bytes32"},{"name":"_borrowVkey","type":"bytes32","internalType":"bytes32"},{"name":"_collateralToken","type":"address","internalType":"address"},{"name":"_debtToken","type":"address","internalType":"address"}],"stateMutability":"nonpayable"},{"type":"function","name":"borrow","inputs":[{"name":"proof","type":"bytes","internalType":"bytes"},{"name":"publicValues","type":"bytes","internalType":"bytes"}],"outputs":[],"stateMutability":"nonpayable"},{"type":"function","name":"borrowVkey","inputs":[],"outputs":[{"name":"","type":"bytes32","internalType":"bytes32"}],"stateMutability":"view"},{"type":"function","name":"collateralToken","inputs":[],"outputs":[{"name":"","type":"address","internalType":"contract IERC20"}],"stateMutability":"view"},{"type":"function","name":"commitments","inputs":[{"name":"","type":"uint256","internalType":"uint256"}],"outputs":[{"name":"","type":"bytes32","internalType":"bytes32"}],"stateMutability":"view"},{"type":"function","name":"debtToken","inputs":[],"outputs":[{"name":"","type":"address","internalType":"contract IERC20"}],"stateMutability":"view"},{"type":"function","name":"deposit","inputs":[{"name":"amount","type":"uint256","internalType":"uint256"},{"name":"proof","type":"bytes","internalType":"bytes"},{"name":"publicValues","type":"bytes","internalType":"bytes"}],"outputs":[],"stateMutability":"nonpayable"},{"type":"function","name":"depositVkey","inputs":[],"outputs":[{"name":"","type":"bytes32","internalType":"bytes32"}],"stateMutability":"view"},{"type":"function","name":"fundVault","inputs":[{"name":"amount","type":"uint256","internalType":"uint256"}],"outputs":[],"stateMutability":"nonpayable"},{"type":"function","name":"getCollateralBalance","inputs":[],"outputs":[{"name":"","type":"uint256","internalType":"uint256"}],"stateMutability":"view"},{"type":"function","name":"getCommitment","inputs":[{"name":"index","type":"uint256","internalType":"uint256"}],"outputs":[{"name":"","type":"bytes32","internalType":"bytes32"}],"stateMutability":"view"},{"type":"function","name":"getCommitmentCount","inputs":[],"outputs":[{"name":"","type":"uint256","internalType":"uint256"}],"stateMutability":"view"},{"type":"function","name":"getDebtBalance","inputs":[],"outputs":[{"name":"","type":"uint256","internalType":"uint256"}],"stateMutability":"view"},{"type":"function","name":"isNullifierSpent","inputs":[{"name":"nullifierHash","type":"bytes32","internalType":"bytes32"}],"outputs":[{"name":"","type":"bool","internalType":"bool"}],"stateMutability":"view"},{"type":"function","name":"merkleRoot","inputs":[],"outputs":[{"name":"","type":"bytes32","internalType":"bytes32"}],"stateMutability":"view"},{"type":"function","name":"nullifiers","inputs":[{"name":"","type":"bytes32","internalType":"bytes32"}],"outputs":[{"name":"","type":"bool","internalType":"bool"}],"stateMutability":"view"},{"type":"function","name":"owner","inputs":[],"outputs":[{"name":"","type":"address","internalType":"address"}],"stateMutability":"view"},{"type":"function","name":"updateVkeys","inputs":[{"name":"_depositVkey","type":"bytes32","internalType":"bytes32"},{"name":"_borrowVkey","type":"bytes32","internalType":"bytes32"}],"outputs":[],"stateMutability":"nonpayable"},{"type":"function","name":"verifier","inputs":[],"outputs":[{"name":"","type":"address","internalType":"contract ISP1Verifier"}],"stateMutability":"view"},{"type":"event","name":"Borrow","inputs":[{"name":"nullifier","type":"bytes32","indexed":true,"internalType":"bytes32"},{"name":"newCommitment","type":"bytes32","indexed":true,"internalType":"bytes32"},{"name":"recipient","type":"address","indexed":true,"internalType":"address"},{"name":"amount","type":"uint256","indexed":false,"internalType":"uint256"},{"name":"timestamp","type":"uint256","indexed":false,"internalType":"uint256"}],"anonymous":false},{"type":"event","name":"Deposit","inputs":[{"name":"commitment","type":"bytes32","indexed":true,"internalType":"bytes32"},{"name":"timestamp","type":"uint256","indexed":false,"internalType":"uint256"}],"anonymous":false},{"type":"event","name":"MerkleRootUpdated","inputs":[{"name":"oldRoot","type":"bytes32","indexed":false,"internalType":"bytes32"},{"name":"newRoot","type":"bytes32","indexed":false,"internalType":"bytes32"}],"anonymous":false},{"type":"error","name":"AddressEmptyCode","inputs":[{"name":"target","type":"address","internalType":"address"}]},{"type":"error","name":"AddressInsufficientBalance","inputs":[{"name":"account","type":"address","internalType":"address"}]},{"type":"error","name":"FailedInnerCall","inputs":[]},{"type":"error","name":"InsufficientLiquidity","inputs":[]},{"type":"error","name":"InvalidCommitment","inputs":[]},{"type":"error","name":"InvalidProof","inputs":[]},{"type":"error","name":"NullifierAlreadySpent","inputs":[]},{"type":"error","name":"SafeERC20FailedOperation","inputs":[{"name":"token","type":"address","internalType":"address"}]},{"type":"error","name":"UnauthorizedCaller","inputs":[]}],"bytecode":{"object":"0x60e060405234801561000f575f5ffd5b50604051611c39380380611c39833981810160405281019061003191906101be565b8473ffffffffffffffffffffffffffffffffffffffff1660808173ffffffffffffffffffffffffffffffffffffffff1681525050835f81905550826001819055508173ffffffffffffffffffffffffffffffffffffffff1660a08173ffffffffffffffffffffffffffffffffffffffff16815250508073ffffffffffffffffffffffffffffffffffffffff1660c08173ffffffffffffffffffffffffffffffffffffffff16815250503360055f6101000a81548173ffffffffffffffffffffffffffffffffffffffff021916908373ffffffffffffffffffffffffffffffffffffffff1602179055505f5f1b6002819055505050505050610235565b5f5ffd5b5f73ffffffffffffffffffffffffffffffffffffffff82169050919050565b5f61015a82610131565b9050919050565b61016a81610150565b8114610174575f5ffd5b50565b5f8151905061018581610161565b92915050565b5f819050919050565b61019d8161018b565b81146101a7575f5ffd5b50565b5f815190506101b881610194565b92915050565b5f5f5f5f5f60a086880312156101d7576101d661012d565b5b5f6101e488828901610177565b95505060206101f5888289016101aa565b9450506040610206888289016101aa565b935050606061021788828901610177565b925050608061022888828901610177565b9150509295509295909350565b60805160a05160c0516119a26102975f395f818161052501528181610a3b01528181610bbe01528181610d540152610de801525f818161040e015281816105c80152610d9e01525f81816104ce0152818161060f015261082301526119a25ff3fe608060405234801561000f575f5ffd5b5060043610610114575f3560e01c806369445c31116100a05780638da5cb5b1161006f5780638da5cb5b146102ce578063abe73ef5146102ec578063b2016bd414610308578063d5a4e32514610326578063f8d898981461035657610114565b806369445c311461024857806369bcdb7d146102645780636e3a63a31461029457806373fbde4e146102b057610114565b80632b7ac3f3116100e75780632b7ac3f3146101a05780632eb4a7ab146101be57806349ce8997146101dc5780635688881f1461020c5780635ccbbdf11461022a57610114565b80630a9a4c5e146101185780631529a639146101345780631b6d5a94146101525780632997e86b14610170575b5f5ffd5b610132600480360381019061012d919061118a565b610374565b005b61013c61040b565b60405161014991906111e0565b60405180910390f35b61015a6104a9565b6040516101679190611208565b60405180910390f35b61018a60048036038101906101859190611221565b6104af565b6040516101979190611266565b60405180910390f35b6101a86104cc565b6040516101b591906112f9565b60405180910390f35b6101c66104f0565b6040516101d39190611208565b60405180910390f35b6101f660048036038101906101f1919061133c565b6104f6565b6040516102039190611208565b60405180910390f35b610214610516565b60405161022191906111e0565b60405180910390f35b610232610522565b60405161023f91906111e0565b60405180910390f35b610262600480360381019061025d91906113c8565b6105c0565b005b61027e6004803603810190610279919061133c565b6107fc565b60405161028b9190611208565b60405180910390f35b6102ae60048036038101906102a99190611459565b610821565b005b6102b8610c9c565b6040516102c59190611208565b60405180910390f35b6102d6610ca1565b6040516102e391906114f7565b60405180910390f35b6103066004803603810190610301919061133c565b610cc6565b005b610310610d9c565b60405161031d9190611530565b60405180910390f35b610340600480360381019061033b9190611221565b610dc0565b60405161034d9190611266565b60405180910390f35b61035e610de6565b60405161036b9190611530565b60405180910390f35b60055f9054906101000a900473ffffffffffffffffffffffffffffffffffffffff1673ffffffffffffffffffffffffffffffffffffffff163373ffffffffffffffffffffffffffffffffffffffff16146103fa576040517f5c427cd900000000000000000000000000000000000000000000000000000000815260040160405180910390fd5b815f81905550806001819055505050565b5f7f000000000000000000000000000000000000000000000000000000000000000073ffffffffffffffffffffffffffffffffffffffff166370a08231306040518263ffffffff1660e01b815260040161046591906114f7565b602060405180830381865afa158015610480573d5f5f3e3d5ffd5b505050506040513d601f19601f820116820180604052508101906104a4919061155d565b905090565b60015481565b6003602052805f5260405f205f915054906101000a900460ff1681565b7f000000000000000000000000000000000000000000000000000000000000000081565b60025481565b60048181548110610505575f80fd5b905f5260205f20015f915090505481565b5f600480549050905090565b5f7f000000000000000000000000000000000000000000000000000000000000000073ffffffffffffffffffffffffffffffffffffffff166370a08231306040518263ffffffff1660e01b815260040161057c91906114f7565b602060405180830381865afa158015610597573d5f5f3e3d5ffd5b505050506040513d601f19601f820116820180604052508101906105bb919061155d565b905090565b61060d3330877f000000000000000000000000000000000000000000000000000000000000000073ffffffffffffffffffffffffffffffffffffffff16610e0a909392919063ffffffff16565b7f000000000000000000000000000000000000000000000000000000000000000073ffffffffffffffffffffffffffffffffffffffff166341493c605f54848488886040518663ffffffff1660e01b815260040161066f9594939291906115e2565b5f6040518083038186803b158015610685575f5ffd5b505afa158015610697573d5f5f3e3d5ffd5b505050505f5f8335915060208401355f1a905060018160ff16146106e7576040517f09bde33900000000000000000000000000000000000000000000000000000000815260040160405180910390fd5b5f5f1b8203610722576040517fc06789fa00000000000000000000000000000000000000000000000000000000815260040160405180910390fd5b600482908060018154018082558091505060019003905f5260205f20015f90919091909150555f600254905060025483604051602001610763929190611649565b60405160208183030381529060405280519060200120600281905550827f98e783c3864bbf744a057ef605a2a61701c3b62b5ed68b3745b99094497daf1f426040516107af91906111e0565b60405180910390a27ffd69edeceaf1d6832d935be1fba54ca93bf17e71520c6c9ffc08d6e9529f8757816002546040516107ea929190611674565b60405180910390a15050505050505050565b5f600482815481106108115761081061169b565b5b905f5260205f2001549050919050565b7f000000000000000000000000000000000000000000000000000000000000000073ffffffffffffffffffffffffffffffffffffffff166341493c60600154848488886040518663ffffffff1660e01b81526004016108849594939291906115e2565b5f6040518083038186803b15801561089a575f5ffd5b505afa1580156108ac573d5f5f3e3d5ffd5b505050505f5f5f5f5f60658787905010156108fc576040517f08c379a00000000000000000000000000000000000000000000000000000000081526004016108f390611722565b60405180910390fd5b863594506020870135935060408701358060601c9350505f5f90505b60108110156109825780600861092e919061176d565b888883605461093d91906117ae565b81811061094d5761094c61169b565b5b9050013560f81c60f81b60f81c60ff166fffffffffffffffffffffffffffffffff16901b831792508080600101915050610918565b50868660648181106109975761099661169b565b5b9050013560f81c60f81b60f81c905060018160ff16146109e3576040517f09bde33900000000000000000000000000000000000000000000000000000000815260040160405180910390fd5b60035f8681526020019081526020015f205f9054906101000a900460ff1615610a38576040517fb115d85700000000000000000000000000000000000000000000000000000000815260040160405180910390fd5b5f7f000000000000000000000000000000000000000000000000000000000000000073ffffffffffffffffffffffffffffffffffffffff166370a08231306040518263ffffffff1660e01b8152600401610a9291906114f7565b602060405180830381865afa158015610aad573d5f5f3e3d5ffd5b505050506040513d601f19601f82011682018060405250810190610ad1919061155d565b9050826fffffffffffffffffffffffffffffffff16811015610b1f576040517fbb55fd2700000000000000000000000000000000000000000000000000000000815260040160405180910390fd5b600160035f8881526020019081526020015f205f6101000a81548160ff021916908315150217905550600485908060018154018082558091505060019003905f5260205f20015f90919091909150555f600254905060025486604051602001610b89929190611649565b60405160208183030381529060405280519060200120600281905550610c0285856fffffffffffffffffffffffffffffffff167f000000000000000000000000000000000000000000000000000000000000000073ffffffffffffffffffffffffffffffffffffffff16610e8c9092919063ffffffff16565b8473ffffffffffffffffffffffffffffffffffffffff1686887fd47157a1741e94a371f504d911a6160a56020382e2676a3ea307b59b04678d728742604051610c4c92919061182c565b60405180910390a47ffd69edeceaf1d6832d935be1fba54ca93bf17e71520c6c9ffc08d6e9529f875781600254604051610c87929190611674565b60405180910390a15050505050505050505050565b5f5481565b60055f9054906101000a900473ffffffffffffffffffffffffffffffffffffffff1681565b60055f9054906101000a900473ffffffffffffffffffffffffffffffffffffffff1673ffffffffffffffffffffffffffffffffffffffff163373ffffffffffffffffffffffffffffffffffffffff1614610d4c576040517f5c427cd900000000000000000000000000000000000000000000000000000000815260040160405180910390fd5b610d993330837f000000000000000000000000000000000000000000000000000000000000000073ffffffffffffffffffffffffffffffffffffffff16610e0a909392919063ffffffff16565b50565b7f000000000000000000000000000000000000000000000000000000000000000081565b5f60035f8381526020019081526020015f205f9054906101000a900460ff169050919050565b7f000000000000000000000000000000000000000000000000000000000000000081565b610e86848573ffffffffffffffffffffffffffffffffffffffff166323b872dd868686604051602401610e3f93929190611853565b604051602081830303815290604052915060e01b6020820180517bffffffffffffffffffffffffffffffffffffffffffffffffffffffff8381831617835250505050610f0b565b50505050565b610f06838473ffffffffffffffffffffffffffffffffffffffff1663a9059cbb8585604051602401610ebf929190611888565b604051602081830303815290604052915060e01b6020820180517bffffffffffffffffffffffffffffffffffffffffffffffffffffffff8381831617835250505050610f0b565b505050565b5f610f35828473ffffffffffffffffffffffffffffffffffffffff16610fa090919063ffffffff16565b90505f815114158015610f59575080806020019051810190610f5791906118d9565b155b15610f9b57826040517f5274afe7000000000000000000000000000000000000000000000000000000008152600401610f9291906114f7565b60405180910390fd5b505050565b6060610fad83835f610fb5565b905092915050565b606081471015610ffc57306040517fcd786059000000000000000000000000000000000000000000000000000000008152600401610ff391906114f7565b60405180910390fd5b5f5f8573ffffffffffffffffffffffffffffffffffffffff1684866040516110249190611956565b5f6040518083038185875af1925050503d805f811461105e576040519150601f19603f3d011682016040523d82523d5f602084013e611063565b606091505b509150915061107386838361107e565b925050509392505050565b6060826110935761108e8261110b565b611103565b5f82511480156110b957505f8473ffffffffffffffffffffffffffffffffffffffff163b145b156110fb57836040517f9996b3150000000000000000000000000000000000000000000000000000000081526004016110f291906114f7565b60405180910390fd5b819050611104565b5b9392505050565b5f8151111561111d5780518082602001fd5b6040517f1425ea4200000000000000000000000000000000000000000000000000000000815260040160405180910390fd5b5f5ffd5b5f5ffd5b5f819050919050565b61116981611157565b8114611173575f5ffd5b50565b5f8135905061118481611160565b92915050565b5f5f604083850312156111a05761119f61114f565b5b5f6111ad85828601611176565b92505060206111be85828601611176565b9150509250929050565b5f819050919050565b6111da816111c8565b82525050565b5f6020820190506111f35f8301846111d1565b92915050565b61120281611157565b82525050565b5f60208201905061121b5f8301846111f9565b92915050565b5f602082840312156112365761123561114f565b5b5f61124384828501611176565b91505092915050565b5f8115159050919050565b6112608161124c565b82525050565b5f6020820190506112795f830184611257565b92915050565b5f73ffffffffffffffffffffffffffffffffffffffff82169050919050565b5f819050919050565b5f6112c16112bc6112b78461127f565b61129e565b61127f565b9050919050565b5f6112d2826112a7565b9050919050565b5f6112e3826112c8565b9050919050565b6112f3816112d9565b82525050565b5f60208201905061130c5f8301846112ea565b92915050565b61131b816111c8565b8114611325575f5ffd5b50565b5f8135905061133681611312565b92915050565b5f602082840312156113515761135061114f565b5b5f61135e84828501611328565b91505092915050565b5f5ffd5b5f5ffd5b5f5ffd5b5f5f83601f84011261138857611387611367565b5b8235905067ffffffffffffffff8111156113a5576113a461136b565b5b6020830191508360018202830111156113c1576113c061136f565b5b9250929050565b5f5f5f5f5f606086880312156113e1576113e061114f565b5b5f6113ee88828901611328565b955050602086013567ffffffffffffffff81111561140f5761140e611153565b5b61141b88828901611373565b9450945050604086013567ffffffffffffffff81111561143e5761143d611153565b5b61144a88828901611373565b92509250509295509295909350565b5f5f5f5f604085870312156114715761147061114f565b5b5f85013567ffffffffffffffff81111561148e5761148d611153565b5b61149a87828801611373565b9450945050602085013567ffffffffffffffff8111156114bd576114bc611153565b5b6114c987828801611373565b925092505092959194509250565b5f6114e18261127f565b9050919050565b6114f1816114d7565b82525050565b5f60208201905061150a5f8301846114e8565b92915050565b5f61151a826112c8565b9050919050565b61152a81611510565b82525050565b5f6020820190506115435f830184611521565b92915050565b5f8151905061155781611312565b92915050565b5f602082840312156115725761157161114f565b5b5f61157f84828501611549565b91505092915050565b5f82825260208201905092915050565b828183375f83830152505050565b5f601f19601f8301169050919050565b5f6115c18385611588565b93506115ce838584611598565b6115d7836115a6565b840190509392505050565b5f6060820190506115f55f8301886111f9565b81810360208301526116088186886115b6565b9050818103604083015261161d8184866115b6565b90509695505050505050565b5f819050919050565b61164361163e82611157565b611629565b82525050565b5f6116548285611632565b6020820191506116648284611632565b6020820191508190509392505050565b5f6040820190506116875f8301856111f9565b61169460208301846111f9565b9392505050565b7f4e487b71000000000000000000000000000000000000000000000000000000005f52603260045260245ffd5b5f82825260208201905092915050565b7f496e76616c6964207075626c69632076616c756573206c656e677468000000005f82015250565b5f61170c601c836116c8565b9150611717826116d8565b602082019050919050565b5f6020820190508181035f83015261173981611700565b9050919050565b7f4e487b71000000000000000000000000000000000000000000000000000000005f52601160045260245ffd5b5f611777826111c8565b9150611782836111c8565b9250828202611790816111c8565b915082820484148315176117a7576117a6611740565b5b5092915050565b5f6117b8826111c8565b91506117c3836111c8565b92508282019050808211156117db576117da611740565b5b92915050565b5f6fffffffffffffffffffffffffffffffff82169050919050565b5f61181661181161180c846117e1565b61129e565b6111c8565b9050919050565b611826816117fc565b82525050565b5f60408201905061183f5f83018561181d565b61184c60208301846111d1565b9392505050565b5f6060820190506118665f8301866114e8565b61187360208301856114e8565b61188060408301846111d1565b949350505050565b5f60408201905061189b5f8301856114e8565b6118a860208301846111d1565b9392505050565b6118b88161124c565b81146118c2575f5ffd5b50565b5f815190506118d3816118af565b92915050565b5f602082840312156118ee576118ed61114f565b5b5f6118fb848285016118c5565b91505092915050565b5f81519050919050565b5f81905092915050565b8281835e5f83830152505050565b5f61193082611904565b61193a818561190e565b935061194a818560208601611918565b80840191505092915050565b5f6119618284611926565b91508190509291505056fea26469706673582212209316b87c7b84b8363e66ecff8d2f0c1d9031724293ba063450bb1e46c4bd33a964736f6c634300081e0033","linkReferences":{}},"methodIdentifiers":{"borrow(bytes,bytes)":"6e3a63a3","borrowVkey()":"1b6d5a94","collateralToken()":"b2016bd4","commitments(uint256)":"49ce8997","debtToken()":"f8d89898","deposit(uint256,bytes,bytes)":"69445c31","depositVkey()":"73fbde4e","fundVault(uint256)":"abe73ef5","getCollateralBalance()":"1529a639","getCommitment(uint256)":"69bcdb7d","getCommitmentCount()":"5688881f","getDebtBalance()":"5ccbbdf1","isNullifierSpent(bytes32)":"d5a4e325","merkleRoot()":"2eb4a7ab","nullifiers(bytes32)":"2997e86b","owner()":"8da5cb5b","updateVkeys(bytes32,bytes32)":"0a9a4c5e","verifier()":"2b7ac3f3"},"id":29}