{"abi":[{"type":"constructor","inputs":[{"name":"_verifier","type":"address","internalType":"address"},{"name":"_depositVkey","type":"bytes32","internalType":"bytes32"},{"name":"_borrowVkey","type":"bytes32","internalType":"bytes32"},{"name":"_collateralToken","type":"address","internalType":"address"},{"name":"_debtToken","type":"address","internalType":"address"}],"stateMutability":"nonpayable"},{"type":"function","name":"COLLATERAL_TOKEN","inputs":[],"outputs":[{"name":"","type":"address","internalType":"contract IERC20"}],"stateMutability":"view"},{"type":"function","name":"DEBT_TOKEN","inputs":[],"outputs":[{"name":"","type":"address","internalType":"contract IERC20"}],"stateMutability":"view"},{"type":"function","name":"VERIFIER","inputs":[],"outputs":[{"name":"","type":"address","internalType":"contract ISP1Verifier"}],"stateMutability":"view"},{"type":"function","name":"borrow","inputs":[{"name":"proof","type":"bytes","internalType":"bytes"},{"name":"publicValues","type":"bytes","internalType":"bytes"}],"outputs":[],"stateMutability":"nonpayable"},{"type":"function","name":"borrowViaRelayer","inputs":[{"name":"userSignature","type":"bytes","internalType":"bytes"},{"name":"proof","type":"bytes","internalType":"bytes"},{"name":"publicValues","type":"bytes","internalType":"bytes"},{"name":"nonce","type":"uint256","internalType":"uint256"}],"outputs":[],"stateMutability":"nonpayable"},{"type":"function","name":"borrowVkey","inputs":[],"outputs":[{"name":"","type":"bytes32","internalType":"bytes32"}],"stateMutability":"view"},{"type":"function","name":"commitments","inputs":[{"name":"","type":"uint256","internalType":"uint256"}],"outputs":[{"name":"","type":"bytes32","internalType":"bytes32"}],"stateMutability":"view"},{"type":"function","name":"deposit","inputs":[{"name":"amount","type":"uint256","internalType":"uint256"},{"name":"proof","type":"bytes","internalType":"bytes"},{"name":"publicValues","type":"bytes","internalType":"bytes"}],"outputs":[],"stateMutability":"nonpayable"},{"type":"function","name":"depositVkey","inputs":[],"outputs":[{"name":"","type":"bytes32","internalType":"bytes32"}],"stateMutability":"view"},{"type":"function","name":"fundVault","inputs":[{"name":"amount","type":"uint256","internalType":"uint256"}],"outputs":[],"stateMutability":"nonpayable"},{"type":"function","name":"getCollateralBalance","inputs":[],"outputs":[{"name":"","type":"uint256","internalType":"uint256"}],"stateMutability":"view"},{"type":"function","name":"getCommitment","inputs":[{"name":"index","type":"uint256","internalType":"uint256"}],"outputs":[{"name":"","type":"bytes32","internalType":"bytes32"}],"stateMutability":"view"},{"type":"function","name":"getCommitmentCount","inputs":[],"outputs":[{"name":"","type":"uint256","internalType":"uint256"}],"stateMutability":"view"},{"type":"function","name":"getDebtBalance","inputs":[],"outputs":[{"name":"","type":"uint256","internalType":"uint256"}],"stateMutability":"view"},{"type":"function","name":"isNullifierSpent","inputs":[{"name":"nullifierHash","type":"bytes32","internalType":"bytes32"}],"outputs":[{"name":"","type":"bool","internalType":"bool"}],"stateMutability":"view"},{"type":"function","name":"merkleRoot","inputs":[],"outputs":[{"name":"","type":"bytes32","internalType":"bytes32"}],"stateMutability":"view"},{"type":"function","name":"nullifiers","inputs":[{"name":"","type":"bytes32","internalType":"bytes32"}],"outputs":[{"name":"","type":"bool","internalType":"bool"}],"stateMutability":"view"},{"type":"function","name":"owner","inputs":[],"outputs":[{"name":"","type":"address","internalType":"address"}],"stateMutability":"view"},{"type":"function","name":"updateVkeys","inputs":[{"name":"_depositVkey","type":"bytes32","internalType":"bytes32"},{"name":"_borrowVkey","type":"bytes32","internalType":"bytes32"}],"outputs":[],"stateMutability":"nonpayable"},{"type":"function","name":"usedSignatures","inputs":[{"name":"","type":"bytes32","internalType":"bytes32"}],"outputs":[{"name":"","type":"bool","internalType":"bool"}],"stateMutability":"view"},{"type":"event","name":"Borrow","inputs":[{"name":"nullifierHash","type":"bytes32","indexed":true,"internalType":"bytes32"},{"name":"newCommitment","type":"bytes32","indexed":true,"internalType":"bytes32"},{"name":"recipient","type":"address","indexed":true,"internalType":"address"},{"name":"borrowAmount","type":"uint256","indexed":false,"internalType":"uint256"},{"name":"timestamp","type":"uint256","indexed":false,"internalType":"uint256"}],"anonymous":false},{"type":"event","name":"BorrowViaRelayer","inputs":[{"name":"nullifierHash","type":"bytes32","indexed":true,"internalType":"bytes32"},{"name":"newCommitment","type":"bytes32","indexed":true,"internalType":"bytes32"},{"name":"actualUser","type":"address","indexed":true,"internalType":"address"},{"name":"relayer","type":"address","indexed":false,"internalType":"address"},{"name":"borrowAmount","type":"uint256","indexed":false,"internalType":"uint256"},{"name":"timestamp","type":"uint256","indexed":false,"internalType":"uint256"}],"anonymous":false},{"type":"event","name":"Deposit","inputs":[{"name":"commitment","type":"bytes32","indexed":true,"internalType":"bytes32"},{"name":"timestamp","type":"uint256","indexed":false,"internalType":"uint256"}],"anonymous":false},{"type":"event","name":"MerkleRootUpdated","inputs":[{"name":"oldRoot","type":"bytes32","indexed":false,"internalType":"bytes32"},{"name":"newRoot","type":"bytes32","indexed":false,"internalType":"bytes32"}],"anonymous":false},{"type":"error","name":"AddressEmptyCode","inputs":[{"name":"target","type":"address","internalType":"address"}]},{"type":"error","name":"AddressInsufficientBalance","inputs":[{"name":"account","type":"address","internalType":"address"}]},{"type":"error","name":"ECDSAInvalidSignature","inputs":[]},{"type":"error","name":"ECDSAInvalidSignatureLength","inputs":[{"name":"length","type":"uint256","internalType":"uint256"}]},{"type":"error","name":"ECDSAInvalidSignatureS","inputs":[{"name":"s","type":"bytes32","internalType":"bytes32"}]},{"type":"error","name":"FailedInnerCall","inputs":[]},{"type":"error","name":"InsufficientLiquidity","inputs":[]},{"type":"error","name":"InvalidCommitment","inputs":[]},{"type":"error","name":"InvalidProof","inputs":[]},{"type":"error","name":"InvalidSignature","inputs":[]},{"type":"error","name":"NullifierAlreadySpent","inputs":[]},{"type":"error","name":"SafeERC20FailedOperation","inputs":[{"name":"token","type":"address","internalType":"address"}]},{"type":"error","name":"SignatureAlreadyUsed","inputs":[]},{"type":"error","name":"UnauthorizedCaller","inputs":[]}],"bytecode":{"object":"0x60e060405234801561000f575f5ffd5b506040516127fb3803806127fb833981810160405281019061003191906101be565b8473ffffffffffffffffffffffffffffffffffffffff1660808173ffffffffffffffffffffffffffffffffffffffff1681525050835f81905550826001819055508173ffffffffffffffffffffffffffffffffffffffff1660a08173ffffffffffffffffffffffffffffffffffffffff16815250508073ffffffffffffffffffffffffffffffffffffffff1660c08173ffffffffffffffffffffffffffffffffffffffff16815250503360065f6101000a81548173ffffffffffffffffffffffffffffffffffffffff021916908373ffffffffffffffffffffffffffffffffffffffff1602179055505f5f1b6002819055505050505050610235565b5f5ffd5b5f73ffffffffffffffffffffffffffffffffffffffff82169050919050565b5f61015a82610131565b9050919050565b61016a81610150565b8114610174575f5ffd5b50565b5f8151905061018581610161565b92915050565b5f819050919050565b61019d8161018b565b81146101a7575f5ffd5b50565b5f815190506101b881610194565b92915050565b5f5f5f5f5f60a086880312156101d7576101d661012d565b5b5f6101e488828901610177565b95505060206101f5888289016101aa565b9450506040610206888289016101aa565b935050606061021788828901610177565b925050608061022888828901610177565b9150509295509295909350565b60805160a05160c05161254f6102ac5f395f81816107030152818161088601528181610a9f01528181611005015281816111880152818161126d01526112c401525f81816109ac01528181610b42015261133401525f81816105010152818161096e01528181610b890152610dbc015261254f5ff3fe608060405234801561000f575f5ffd5b506004361061012a575f3560e01c806369445c31116100ab5780638da5cb5b1161006f5780638da5cb5b1461031e578063abe73ef51461033c578063d5a4e32514610358578063f5f1f1a714610388578063f978fd61146103a65761012a565b806369445c311461027a57806369bcdb7d146102965780636e3a63a3146102c657806373fbde4e146102e2578063854db43c146103005761012a565b80632997e86b116100f25780632997e86b146101c05780632eb4a7ab146101f057806349ce89971461020e5780635688881f1461023e5780635ccbbdf11461025c5761012a565b806308815fc61461012e57806308c84e701461014a5780630a9a4c5e146101685780631529a639146101845780631b6d5a94146101a2575b5f5ffd5b61014860048036038101906101439190611ad7565b6103d6565b005b61015261096c565b60405161015f9190611c15565b60405180910390f35b610182600480360381019061017d9190611c61565b610990565b005b61018c6109a9565b6040516101999190611cae565b60405180910390f35b6101aa610a47565b6040516101b79190611cd6565b60405180910390f35b6101da60048036038101906101d59190611cef565b610a4d565b6040516101e79190611d34565b60405180910390f35b6101f8610a6a565b6040516102059190611cd6565b60405180910390f35b61022860048036038101906102239190611d4d565b610a70565b6040516102359190611cd6565b60405180910390f35b610246610a90565b6040516102539190611cae565b60405180910390f35b610264610a9c565b6040516102719190611cae565b60405180910390f35b610294600480360381019061028f9190611d78565b610b3a565b005b6102b060048036038101906102ab9190611d4d565b610d95565b6040516102bd9190611cd6565b60405180910390f35b6102e060048036038101906102db9190611e09565b610dba565b005b6102ea611266565b6040516102f79190611cd6565b60405180910390f35b61030861126b565b6040516103159190611ea7565b60405180910390f35b61032661128f565b6040516103339190611ee0565b60405180910390f35b61035660048036038101906103519190611d4d565b6112b4565b005b610372600480360381019061036d9190611cef565b61130c565b60405161037f9190611d34565b60405180910390f35b610390611332565b60405161039d9190611ea7565b60405180910390f35b6103c060048036038101906103bb9190611cef565b611356565b6040516103cd9190611d34565b60405180910390f35b5f3086868686866040516020016103f296959493929190611f9a565b6040516020818303038152906040528051906020012090505f61041482611373565b90505f610464828b8b8080601f0160208091040260200160405190810160405280939291908181526020018383808284375f81840152601f19601f820116905080830192505050505050506113a6565b90505f8a8a604051610477929190611fe3565b6040518091039020905060055f8281526020019081526020015f205f9054906101000a900460ff16156104d6576040517f900bb2c900000000000000000000000000000000000000000000000000000000815260040160405180910390fd5b600160055f8381526020019081526020015f205f6101000a81548160ff0219169083151502179055507f000000000000000000000000000000000000000000000000000000000000000073ffffffffffffffffffffffffffffffffffffffff166341493c606001548989604051602001610551929190612047565b6040516020818303038152906040528c8c6040518563ffffffff1660e01b815260040161058194939291906120b9565b5f6040518083038186803b158015610597575f5ffd5b505afa1580156105a9573d5f5f3e3d5ffd5b505050505f5f5f5f5f8b35945060208c0135935060408c01358060601c9350505f5f90505b601081101561064a578060086105e49190612146565b6fffffffffffffffffffffffffffffffff168d8d8360546106059190612182565b818110610615576106146121b5565b5b9050013560f81c60f81b60f81c60ff166fffffffffffffffffffffffffffffffff16901b8317925080806001019150506105ce565b508b8b606481811061065f5761065e6121b5565b5b9050013560f81c60f81b60f81c905060018160ff16146106ab576040517f09bde33900000000000000000000000000000000000000000000000000000000815260040160405180910390fd5b60035f8681526020019081526020015f205f9054906101000a900460ff1615610700576040517fb115d85700000000000000000000000000000000000000000000000000000000815260040160405180910390fd5b5f7f000000000000000000000000000000000000000000000000000000000000000073ffffffffffffffffffffffffffffffffffffffff166370a08231306040518263ffffffff1660e01b815260040161075a9190611ee0565b602060405180830381865afa158015610775573d5f5f3e3d5ffd5b505050506040513d601f19601f8201168201806040525081019061079991906121f6565b9050826fffffffffffffffffffffffffffffffff168110156107e7576040517fbb55fd2700000000000000000000000000000000000000000000000000000000815260040160405180910390fd5b600160035f8881526020019081526020015f205f6101000a81548160ff021916908315150217905550600485908060018154018082558091505060019003905f5260205f20015f90919091909150555f600254905060025486604051602001610851929190612241565b604051602081830303815290604052805190602001206002819055506108ca85856fffffffffffffffffffffffffffffffff167f000000000000000000000000000000000000000000000000000000000000000073ffffffffffffffffffffffffffffffffffffffff166113d09092919063ffffffff16565b8873ffffffffffffffffffffffffffffffffffffffff1686887ed56d2c6341f911bf91f2c0bf1e99ce72c10b1b3e642c354615006dc5af7d3a3388426040516109159392919061229c565b60405180910390a47ffd69edeceaf1d6832d935be1fba54ca93bf17e71520c6c9ffc08d6e9529f8757816002546040516109509291906122d1565b60405180910390a1505050505050505050505050505050505050565b7f000000000000000000000000000000000000000000000000000000000000000081565b61099861144f565b815f81905550806001819055505050565b5f7f000000000000000000000000000000000000000000000000000000000000000073ffffffffffffffffffffffffffffffffffffffff166370a08231306040518263ffffffff1660e01b8152600401610a039190611ee0565b602060405180830381865afa158015610a1e573d5f5f3e3d5ffd5b505050506040513d601f19601f82011682018060405250810190610a4291906121f6565b905090565b60015481565b6003602052805f5260405f205f915054906101000a900460ff1681565b60025481565b60048181548110610a7f575f80fd5b905f5260205f20015f915090505481565b5f600480549050905090565b5f7f000000000000000000000000000000000000000000000000000000000000000073ffffffffffffffffffffffffffffffffffffffff166370a08231306040518263ffffffff1660e01b8152600401610af69190611ee0565b602060405180830381865afa158015610b11573d5f5f3e3d5ffd5b505050506040513d601f19601f82011682018060405250810190610b3591906121f6565b905090565b610b873330877f000000000000000000000000000000000000000000000000000000000000000073ffffffffffffffffffffffffffffffffffffffff166114d7909392919063ffffffff16565b7f000000000000000000000000000000000000000000000000000000000000000073ffffffffffffffffffffffffffffffffffffffff166341493c605f548484604051602001610bd8929190612047565b60405160208183030381529060405287876040518563ffffffff1660e01b8152600401610c0894939291906120b9565b5f6040518083038186803b158015610c1e575f5ffd5b505afa158015610c30573d5f5f3e3d5ffd5b505050505f5f8335915060208401355f1a905060018160ff1614610c80576040517f09bde33900000000000000000000000000000000000000000000000000000000815260040160405180910390fd5b5f5f1b8203610cbb576040517fc06789fa00000000000000000000000000000000000000000000000000000000815260040160405180910390fd5b600482908060018154018082558091505060019003905f5260205f20015f90919091909150555f600254905060025483604051602001610cfc929190612241565b60405160208183030381529060405280519060200120600281905550827f98e783c3864bbf744a057ef605a2a61701c3b62b5ed68b3745b99094497daf1f42604051610d489190611cae565b60405180910390a27ffd69edeceaf1d6832d935be1fba54ca93bf17e71520c6c9ffc08d6e9529f875781600254604051610d839291906122d1565b60405180910390a15050505050505050565b5f60048281548110610daa57610da96121b5565b5b905f5260205f2001549050919050565b7f000000000000000000000000000000000000000000000000000000000000000073ffffffffffffffffffffffffffffffffffffffff166341493c606001548484604051602001610e0c929190612047565b60405160208183030381529060405287876040518563ffffffff1660e01b8152600401610e3c94939291906120b9565b5f6040518083038186803b158015610e52575f5ffd5b505afa158015610e64573d5f5f3e3d5ffd5b505050505f5f5f5f5f6065878790501015610eb4576040517f08c379a0000000000000000000000000000000000000000000000000000000008152600401610eab90612352565b60405180910390fd5b863594506020870135935060408701358060601c9350505f5f90505b6010811015610f4c57806008610ee69190612146565b6fffffffffffffffffffffffffffffffff168888836054610f079190612182565b818110610f1757610f166121b5565b5b9050013560f81c60f81b60f81c60ff166fffffffffffffffffffffffffffffffff16901b831792508080600101915050610ed0565b5086866064818110610f6157610f606121b5565b5b9050013560f81c60f81b60f81c905060018160ff1614610fad576040517f09bde33900000000000000000000000000000000000000000000000000000000815260040160405180910390fd5b60035f8681526020019081526020015f205f9054906101000a900460ff1615611002576040517fb115d85700000000000000000000000000000000000000000000000000000000815260040160405180910390fd5b5f7f000000000000000000000000000000000000000000000000000000000000000073ffffffffffffffffffffffffffffffffffffffff166370a08231306040518263ffffffff1660e01b815260040161105c9190611ee0565b602060405180830381865afa158015611077573d5f5f3e3d5ffd5b505050506040513d601f19601f8201168201806040525081019061109b91906121f6565b9050826fffffffffffffffffffffffffffffffff168110156110e9576040517fbb55fd2700000000000000000000000000000000000000000000000000000000815260040160405180910390fd5b600160035f8881526020019081526020015f205f6101000a81548160ff021916908315150217905550600485908060018154018082558091505060019003905f5260205f20015f90919091909150555f600254905060025486604051602001611153929190612241565b604051602081830303815290604052805190602001206002819055506111cc85856fffffffffffffffffffffffffffffffff167f000000000000000000000000000000000000000000000000000000000000000073ffffffffffffffffffffffffffffffffffffffff166113d09092919063ffffffff16565b8473ffffffffffffffffffffffffffffffffffffffff1686887fd47157a1741e94a371f504d911a6160a56020382e2676a3ea307b59b04678d728742604051611216929190612370565b60405180910390a47ffd69edeceaf1d6832d935be1fba54ca93bf17e71520c6c9ffc08d6e9529f8757816002546040516112519291906122d1565b60405180910390a15050505050505050505050565b5f5481565b7f000000000000000000000000000000000000000000000000000000000000000081565b60065f9054906101000a900473ffffffffffffffffffffffffffffffffffffffff1681565b6112bc61144f565b6113093330837f000000000000000000000000000000000000000000000000000000000000000073ffffffffffffffffffffffffffffffffffffffff166114d7909392919063ffffffff16565b50565b5f60035f8381526020019081526020015f205f9054906101000a900460ff169050919050565b7f000000000000000000000000000000000000000000000000000000000000000081565b6005602052805f5260405f205f915054906101000a900460ff1681565b5f7f19457468657265756d205369676e6564204d6573736167653a0a3332000000005f5281601c52603c5f209050919050565b5f5f5f5f6113b48686611559565b9250925092506113c482826115ae565b82935050505092915050565b61144a838473ffffffffffffffffffffffffffffffffffffffff1663a9059cbb8585604051602401611403929190612397565b604051602081830303815290604052915060e01b6020820180517bffffffffffffffffffffffffffffffffffffffffffffffffffffffff8381831617835250505050611710565b505050565b60065f9054906101000a900473ffffffffffffffffffffffffffffffffffffffff1673ffffffffffffffffffffffffffffffffffffffff163373ffffffffffffffffffffffffffffffffffffffff16146114d5576040517f5c427cd900000000000000000000000000000000000000000000000000000000815260040160405180910390fd5b565b611553848573ffffffffffffffffffffffffffffffffffffffff166323b872dd86868660405160240161150c939291906123be565b604051602081830303815290604052915060e01b6020820180517bffffffffffffffffffffffffffffffffffffffffffffffffffffffff8381831617835250505050611710565b50505050565b5f5f5f6041845103611599575f5f5f602087015192506040870151915060608701515f1a905061158b888285856117a5565b9550955095505050506115a7565b5f600285515f1b9250925092505b9250925092565b5f60038111156115c1576115c06123f3565b5b8260038111156115d4576115d36123f3565b5b031561170c57600160038111156115ee576115ed6123f3565b5b826003811115611601576116006123f3565b5b03611638576040517ff645eedf00000000000000000000000000000000000000000000000000000000815260040160405180910390fd5b6002600381111561164c5761164b6123f3565b5b82600381111561165f5761165e6123f3565b5b036116a357805f1c6040517ffce698f700000000000000000000000000000000000000000000000000000000815260040161169a9190611cae565b60405180910390fd5b6003808111156116b6576116b56123f3565b5b8260038111156116c9576116c86123f3565b5b0361170b57806040517fd78bce0c0000000000000000000000000000000000000000000000000000000081526004016117029190611cd6565b60405180910390fd5b5b5050565b5f61173a828473ffffffffffffffffffffffffffffffffffffffff1661188c90919063ffffffff16565b90505f81511415801561175e57508080602001905181019061175c919061244a565b155b156117a057826040517f5274afe70000000000000000000000000000000000000000000000000000000081526004016117979190611ee0565b60405180910390fd5b505050565b5f5f5f7f7fffffffffffffffffffffffffffffff5d576e7357a4501ddfe92f46681b20a0845f1c11156117e1575f600385925092509250611882565b5f6001888888886040515f81526020016040526040516118049493929190612490565b6020604051602081039080840390855afa158015611824573d5f5f3e3d5ffd5b5050506020604051035190505f73ffffffffffffffffffffffffffffffffffffffff168173ffffffffffffffffffffffffffffffffffffffff1603611875575f60015f5f1b93509350935050611882565b805f5f5f1b935093509350505b9450945094915050565b606061189983835f6118a1565b905092915050565b6060814710156118e857306040517fcd7860590000000000000000000000000000000000000000000000000000000081526004016118df9190611ee0565b60405180910390fd5b5f5f8573ffffffffffffffffffffffffffffffffffffffff1684866040516119109190612503565b5f6040518083038185875af1925050503d805f811461194a576040519150601f19603f3d011682016040523d82523d5f602084013e61194f565b606091505b509150915061195f86838361196a565b925050509392505050565b60608261197f5761197a826119f7565b6119ef565b5f82511480156119a557505f8473ffffffffffffffffffffffffffffffffffffffff163b145b156119e757836040517f9996b3150000000000000000000000000000000000000000000000000000000081526004016119de9190611ee0565b60405180910390fd5b8190506119f0565b5b9392505050565b5f81511115611a095780518082602001fd5b6040517f1425ea4200000000000000000000000000000000000000000000000000000000815260040160405180910390fd5b5f5ffd5b5f5ffd5b5f5ffd5b5f5ffd5b5f5ffd5b5f5f83601f840112611a6457611a63611a43565b5b8235905067ffffffffffffffff811115611a8157611a80611a47565b5b602083019150836001820283011115611a9d57611a9c611a4b565b5b9250929050565b5f819050919050565b611ab681611aa4565b8114611ac0575f5ffd5b50565b5f81359050611ad181611aad565b92915050565b5f5f5f5f5f5f5f6080888a031215611af257611af1611a3b565b5b5f88013567ffffffffffffffff811115611b0f57611b0e611a3f565b5b611b1b8a828b01611a4f565b9750975050602088013567ffffffffffffffff811115611b3e57611b3d611a3f565b5b611b4a8a828b01611a4f565b9550955050604088013567ffffffffffffffff811115611b6d57611b6c611a3f565b5b611b798a828b01611a4f565b93509350506060611b8c8a828b01611ac3565b91505092959891949750929550565b5f73ffffffffffffffffffffffffffffffffffffffff82169050919050565b5f819050919050565b5f611bdd611bd8611bd384611b9b565b611bba565b611b9b565b9050919050565b5f611bee82611bc3565b9050919050565b5f611bff82611be4565b9050919050565b611c0f81611bf5565b82525050565b5f602082019050611c285f830184611c06565b92915050565b5f819050919050565b611c4081611c2e565b8114611c4a575f5ffd5b50565b5f81359050611c5b81611c37565b92915050565b5f5f60408385031215611c7757611c76611a3b565b5b5f611c8485828601611c4d565b9250506020611c9585828601611c4d565b9150509250929050565b611ca881611aa4565b82525050565b5f602082019050611cc15f830184611c9f565b92915050565b611cd081611c2e565b82525050565b5f602082019050611ce95f830184611cc7565b92915050565b5f60208284031215611d0457611d03611a3b565b5b5f611d1184828501611c4d565b91505092915050565b5f8115159050919050565b611d2e81611d1a565b82525050565b5f602082019050611d475f830184611d25565b92915050565b5f60208284031215611d6257611d61611a3b565b5b5f611d6f84828501611ac3565b91505092915050565b5f5f5f5f5f60608688031215611d9157611d90611a3b565b5b5f611d9e88828901611ac3565b955050602086013567ffffffffffffffff811115611dbf57611dbe611a3f565b5b611dcb88828901611a4f565b9450945050604086013567ffffffffffffffff811115611dee57611ded611a3f565b5b611dfa88828901611a4f565b92509250509295509295909350565b5f5f5f5f60408587031215611e2157611e20611a3b565b5b5f85013567ffffffffffffffff811115611e3e57611e3d611a3f565b5b611e4a87828801611a4f565b9450945050602085013567ffffffffffffffff811115611e6d57611e6c611a3f565b5b611e7987828801611a4f565b925092505092959194509250565b5f611e9182611be4565b9050919050565b611ea181611e87565b82525050565b5f602082019050611eba5f830184611e98565b92915050565b5f611eca82611b9b565b9050919050565b611eda81611ec0565b82525050565b5f602082019050611ef35f830184611ed1565b92915050565b5f8160601b9050919050565b5f611f0f82611ef9565b9050919050565b5f611f2082611f05565b9050919050565b611f38611f3382611ec0565b611f16565b82525050565b5f81905092915050565b828183375f83830152505050565b5f611f618385611f3e565b9350611f6e838584611f48565b82840190509392505050565b5f819050919050565b611f94611f8f82611aa4565b611f7a565b82525050565b5f611fa58289611f27565b601482019150611fb6828789611f56565b9150611fc3828587611f56565b9150611fcf8284611f83565b602082019150819050979650505050505050565b5f611fef828486611f56565b91508190509392505050565b5f82825260208201905092915050565b5f601f19601f8301169050919050565b5f6120268385611ffb565b9350612033838584611f48565b61203c8361200b565b840190509392505050565b5f6020820190508181035f83015261206081848661201b565b90509392505050565b5f81519050919050565b8281835e5f83830152505050565b5f61208b82612069565b6120958185611ffb565b93506120a5818560208601612073565b6120ae8161200b565b840191505092915050565b5f6060820190506120cc5f830187611cc7565b81810360208301526120de8186612081565b905081810360408301526120f381848661201b565b905095945050505050565b5f6fffffffffffffffffffffffffffffffff82169050919050565b7f4e487b71000000000000000000000000000000000000000000000000000000005f52601160045260245ffd5b5f612150826120fe565b915061215b836120fe565b9250828202612169816120fe565b915080821461217b5761217a612119565b5b5092915050565b5f61218c82611aa4565b915061219783611aa4565b92508282019050808211156121af576121ae612119565b5b92915050565b7f4e487b71000000000000000000000000000000000000000000000000000000005f52603260045260245ffd5b5f815190506121f081611aad565b92915050565b5f6020828403121561220b5761220a611a3b565b5b5f612218848285016121e2565b91505092915050565b5f819050919050565b61223b61223682611c2e565b612221565b82525050565b5f61224c828561222a565b60208201915061225c828461222a565b6020820191508190509392505050565b5f61228661228161227c846120fe565b611bba565b611aa4565b9050919050565b6122968161226c565b82525050565b5f6060820190506122af5f830186611ed1565b6122bc602083018561228d565b6122c96040830184611c9f565b949350505050565b5f6040820190506122e45f830185611cc7565b6122f16020830184611cc7565b9392505050565b5f82825260208201905092915050565b7f496e76616c6964207075626c69632076616c756573206c656e677468000000005f82015250565b5f61233c601c836122f8565b915061234782612308565b602082019050919050565b5f6020820190508181035f83015261236981612330565b9050919050565b5f6040820190506123835f83018561228d565b6123906020830184611c9f565b9392505050565b5f6040820190506123aa5f830185611ed1565b6123b76020830184611c9f565b9392505050565b5f6060820190506123d15f830186611ed1565b6123de6020830185611ed1565b6123eb6040830184611c9f565b949350505050565b7f4e487b71000000000000000000000000000000000000000000000000000000005f52602160045260245ffd5b61242981611d1a565b8114612433575f5ffd5b50565b5f8151905061244481612420565b92915050565b5f6020828403121561245f5761245e611a3b565b5b5f61246c84828501612436565b91505092915050565b5f60ff82169050919050565b61248a81612475565b82525050565b5f6080820190506124a35f830187611cc7565b6124b06020830186612481565b6124bd6040830185611cc7565b6124ca6060830184611cc7565b95945050505050565b5f6124dd82612069565b6124e78185611f3e565b93506124f7818560208601612073565b80840191505092915050565b5f61250e82846124d3565b91508190509291505056fea264697066735822122018fbff0f80440c07dac3a6baba3ee5710c9799f8587ba39b2fe5c619b858081b64736f6c634300081e0033","linkReferences":{}},"methodIdentifiers":{"COLLATERAL_TOKEN()":"f5f1f1a7","DEBT_TOKEN()":"854db43c","VERIFIER()":"08c84e70","borrow(bytes,bytes)":"6e3a63a3","borrowViaRelayer(bytes,bytes,bytes,uint256)":"08815fc6","borrowVkey()":"1b6d5a94","commitments(uint256)":"49ce8997","deposit(uint256,bytes,bytes)":"69445c31","depositVkey()":"73fbde4e","fundVault(uint256)":"abe73ef5","getCollateralBalance()":"1529a639","getCommitment(uint256)":"69bcdb7d","getCommitmentCount()":"5688881f","getDebtBalance()":"5ccbbdf1","isNullifierSpent(bytes32)":"d5a4e325","merkleRoot()":"2eb4a7ab","nullifiers(bytes32)":"2997e86b","owner()":"8da5cb5b","updateVkeys(bytes32,bytes32)":"0a9a4c5e","usedSignatures(bytes32)":"f978fd61"},"id":39}