{"abi":[{"type":"function","name":"Verify","inputs":[{"name":"proof","type":"uint256[8]","internalType":"uint256[8]"},{"name":"input","type":"uint256[2]","internalType":"uint256[2]"}],"outputs":[],"stateMutability":"view"},{"type":"function","name":"compressProof","inputs":[{"name":"proof","type":"uint256[8]","internalType":"uint256[8]"}],"outputs":[{"name":"compressed","type":"uint256[4]","internalType":"uint256[4]"}],"stateMutability":"view"},{"type":"function","name":"verifyCompressedProof","inputs":[{"name":"compressedProof","type":"uint256[4]","internalType":"uint256[4]"},{"name":"input","type":"uint256[2]","internalType":"uint256[2]"}],"outputs":[],"stateMutability":"view"},{"type":"error","name":"ProofInvalid","inputs":[]},{"type":"error","name":"PublicInputNotInField","inputs":[]}],"bytecode":{"object":"0x6080604052348015600e575f5ffd5b5061218e8061001c5f395ff3fe608060405234801561000f575f5ffd5b506004361061003f575f3560e01c806344f6369214610043578063eddf243c14610073578063f11817b21461008f575b5f5ffd5b61005d60048036038101906100589190611eeb565b6100ab565b60405161006a9190611fc5565b60405180910390f35b61008d60048036038101906100889190611fff565b61020a565b005b6100a960048036038101906100a49190612060565b6104a4565b005b6100b3611e5b565b6100ec825f600881106100c9576100c861209e565b5b6020020135836001600881106100e2576100e161209e565b5b6020020135610a5f565b815f600481106100ff576100fe61209e565b5b6020020181815250506101748260036008811061011f5761011e61209e565b5b6020020135836002600881106101385761013761209e565b5b6020020135846005600881106101515761015061209e565b5b60200201358560046008811061016a5761016961209e565b5b6020020135610c0d565b826002600481106101885761018761209e565b5b60200201836001600481106101a05761019f61209e565b5b60200201828152508281525050506101e8826006600881106101c5576101c461209e565b5b6020020135836007600881106101de576101dd61209e565b5b6020020135610a5f565b816003600481106101fc576101fb61209e565b5b602002018181525050919050565b5f5f610215836111d9565b915091505f6040516101008682377f21ab438b0ad9688f8d9afc96ed0ab25e6ab7f19ed6f7d58a9dc136d68de55e3e6101008201527f2d1f461ca03a65528393919e9e412f6b82d7096e44fa039bd7642a5112188af76101208201527f100f76d4ac45886c1334d58716121dc0ffa8463738f3f2adf793e15b8ecd7e1d6101408201527f2bf21e8bb2f9419034373c2156cdd7bddf273519dcd7f674ef21e2748ced89f26101608201527f2d4d9aa7e302d9df41749d5507949d05dbea33fbb16c643b22f599a2be6df2e26101808201527f14bedd503c37ceb061d8ec60209fe345ce89830a19230301f076caff004d19266101a08201527f0967032fcbf776d1afc985f88877f182d38480a653f2decaa9794cbc3bf3060c6101c08201527f0e187847ad4c798374d0d6732bf501847dd68bc0e071241e0213bc7fc13db7ab6101e08201527e1752a100a72fdf1e5a5d6ea841cc20ec838bccfcf7bd559e79f1c9c759b6a06102008201527f192a8cc13cd9f762871f21e43451c6ca9eeab2cb2987c4e366a185c25dac2e7f61022082015283610240820152826102608201527f198e9393920d483a7260bfb731fb5d25f1aa493335a9e71297e485b7aef312c26102808201527f1800deef121f1e76426a00665e5c4479674322d4f75edadd46debd5cd992f6ed6102a08201527f275dc4a288d1afb3cbb1ac09187524c7db36395df7be3b99e673b13a075a65ec6102c08201527f1d9befcd05a5323e6da4d435f3b617cdb3af83285c2df711ef39c01571827f9d6102e08201526020816103008360085afa9150805182169150508061049d576040517f7fcdd1f400000000000000000000000000000000000000000000000000000000815260040160405180910390fd5b5050505050565b6104ac611e7d565b5f5f6104ce855f600481106104c4576104c361209e565b5b60200201356113ab565b915091505f5f5f5f610510896002600481106104ed576104ec61209e565b5b60200201358a6001600481106105065761050561209e565b5b60200201356114e0565b93509350935093505f5f61053b8b6003600481106105315761053061209e565b5b60200201356113ab565b915091505f5f61054a8c6111d9565b91509150898b5f601881106105625761056161209e565b5b602002018181525050888b6001601881106105805761057f61209e565b5b602002018181525050868b60026018811061059e5761059d61209e565b5b602002018181525050878b6003601881106105bc576105bb61209e565b5b602002018181525050848b6004601881106105da576105d961209e565b5b602002018181525050858b6005601881106105f8576105f761209e565b5b602002018181525050838b6006601881106106165761061561209e565b5b602002018181525050828b6007601881106106345761063361209e565b5b6020020181815250507f21ab438b0ad9688f8d9afc96ed0ab25e6ab7f19ed6f7d58a9dc136d68de55e3e8b6008601881106106725761067161209e565b5b6020020181815250507f2d1f461ca03a65528393919e9e412f6b82d7096e44fa039bd7642a5112188af78b6009601881106106b0576106af61209e565b5b6020020181815250507f100f76d4ac45886c1334d58716121dc0ffa8463738f3f2adf793e15b8ecd7e1d8b600a601881106106ee576106ed61209e565b5b6020020181815250507f2bf21e8bb2f9419034373c2156cdd7bddf273519dcd7f674ef21e2748ced89f28b600b6018811061072c5761072b61209e565b5b6020020181815250507f2d4d9aa7e302d9df41749d5507949d05dbea33fbb16c643b22f599a2be6df2e28b600c6018811061076a5761076961209e565b5b6020020181815250507f14bedd503c37ceb061d8ec60209fe345ce89830a19230301f076caff004d19268b600d601881106107a8576107a761209e565b5b6020020181815250507f0967032fcbf776d1afc985f88877f182d38480a653f2decaa9794cbc3bf3060c8b600e601881106107e6576107e561209e565b5b6020020181815250507f0e187847ad4c798374d0d6732bf501847dd68bc0e071241e0213bc7fc13db7ab8b600f601881106108245761082361209e565b5b6020020181815250507e1752a100a72fdf1e5a5d6ea841cc20ec838bccfcf7bd559e79f1c9c759b6a08b6010601881106108615761086061209e565b5b6020020181815250507f192a8cc13cd9f762871f21e43451c6ca9eeab2cb2987c4e366a185c25dac2e7f8b60116018811061089f5761089e61209e565b5b602002018181525050818b6012601881106108bd576108bc61209e565b5b602002018181525050808b6013601881106108db576108da61209e565b5b6020020181815250507f198e9393920d483a7260bfb731fb5d25f1aa493335a9e71297e485b7aef312c28b6014601881106109195761091861209e565b5b6020020181815250507f1800deef121f1e76426a00665e5c4479674322d4f75edadd46debd5cd992f6ed8b6015601881106109575761095661209e565b5b6020020181815250507f275dc4a288d1afb3cbb1ac09187524c7db36395df7be3b99e673b13a075a65ec8b6016601881106109955761099461209e565b5b6020020181815250507f1d9befcd05a5323e6da4d435f3b617cdb3af83285c2df711ef39c01571827f9d8b6017601881106109d3576109d261209e565b5b6020020181815250505f6109e5611ea0565b6020816103008f60085afa9150811580610a1757506001815f60018110610a0f57610a0e61209e565b5b602002015114155b15610a4e576040517f7fcdd1f400000000000000000000000000000000000000000000000000000000815260040160405180910390fd5b505050505050505050505050505050565b5f7f30644e72e131a029b85045b68181585d97816a916871ca8d3c208c16d87cfd4783101580610aaf57507f30644e72e131a029b85045b68181585d97816a916871ca8d3c208c16d87cfd478210155b15610ae6576040517f7fcdd1f400000000000000000000000000000000000000000000000000000000815260040160405180910390fd5b5f83148015610af457505f82145b15610b01575f9050610c07565b5f610b9f7f30644e72e131a029b85045b68181585d97816a916871ca8d3c208c16d87cfd4780610b3457610b336120cb565b5b60037f30644e72e131a029b85045b68181585d97816a916871ca8d3c208c16d87cfd4780610b6557610b646120cb565b5b877f30644e72e131a029b85045b68181585d97816a916871ca8d3c208c16d87cfd4780610b9557610b946120cb565b5b898a0909086118bb565b9050808303610bb7575f600185901b17915050610c07565b610bc081611957565b8303610bd55760018085901b17915050610c07565b6040517f7fcdd1f400000000000000000000000000000000000000000000000000000000815260040160405180910390fd5b92915050565b5f5f7f30644e72e131a029b85045b68181585d97816a916871ca8d3c208c16d87cfd4786101580610c5e57507f30644e72e131a029b85045b68181585d97816a916871ca8d3c208c16d87cfd478510155b80610c8957507f30644e72e131a029b85045b68181585d97816a916871ca8d3c208c16d87cfd478410155b80610cb457507f30644e72e131a029b85045b68181585d97816a916871ca8d3c208c16d87cfd478310155b15610ceb576040517f7fcdd1f400000000000000000000000000000000000000000000000000000000815260040160405180910390fd5b5f8385878917171703610d03575f5f915091506111d0565b5f5f5f7f30644e72e131a029b85045b68181585d97816a916871ca8d3c208c16d87cfd4780610d3557610d346120cb565b5b60037f30644e72e131a029b85045b68181585d97816a916871ca8d3c208c16d87cfd47610d629190612125565b7f30644e72e131a029b85045b68181585d97816a916871ca8d3c208c16d87cfd4780610d9157610d906120cb565b5b8a8c090990505f7f30644e72e131a029b85045b68181585d97816a916871ca8d3c208c16d87cfd4780610dc757610dc66120cb565b5b8a7f30644e72e131a029b85045b68181585d97816a916871ca8d3c208c16d87cfd4780610df757610df66120cb565b5b8c8d090990505f7f30644e72e131a029b85045b68181585d97816a916871ca8d3c208c16d87cfd4780610e2d57610e2c6120cb565b5b8a7f30644e72e131a029b85045b68181585d97816a916871ca8d3c208c16d87cfd4780610e5d57610e5c6120cb565b5b8c8d090990507f30644e72e131a029b85045b68181585d97816a916871ca8d3c208c16d87cfd4780610e9257610e916120cb565b5b7f30644e72e131a029b85045b68181585d97816a916871ca8d3c208c16d87cfd4780610ec157610ec06120cb565b5b7f30644e72e131a029b85045b68181585d97816a916871ca8d3c208c16d87cfd4780610ef057610eef6120cb565b5b8c860984087f2b149d40ceb8aaae81be18991be06ac3b5b4c5e559dbefa33267e6dc24a138e5089450610fd57f30644e72e131a029b85045b68181585d97816a916871ca8d3c208c16d87cfd4780610f4b57610f4a6120cb565b5b7f30644e72e131a029b85045b68181585d97816a916871ca8d3c208c16d87cfd4780610f7a57610f796120cb565b5b7f30644e72e131a029b85045b68181585d97816a916871ca8d3c208c16d87cfd4780610fa957610fa86120cb565b5b8e870984087f2fcd3ac2a640a154eb23960892a85a68f031ca0c8344b23a577dcf1052b9e77508611957565b93505050505f5f6110787f30644e72e131a029b85045b68181585d97816a916871ca8d3c208c16d87cfd478061100e5761100d6120cb565b5b7f30644e72e131a029b85045b68181585d97816a916871ca8d3c208c16d87cfd478061103d5761103c6120cb565b5b8586097f30644e72e131a029b85045b68181585d97816a916871ca8d3c208c16d87cfd478061106f5761106e6120cb565b5b878809086118bb565b90506111057f30644e72e131a029b85045b68181585d97816a916871ca8d3c208c16d87cfd47806110ac576110ab6120cb565b5b7f183227397098d014dc2822db40c0ac2ecbc0b548b438e5469e10460b6c3e7ea47f30644e72e131a029b85045b68181585d97816a916871ca8d3c208c16d87cfd47806110fc576110fb6120cb565b5b848808096119c2565b15915050611114838383611a2c565b8093508194505050828714801561112a57508186145b15611152575f8161113b575f61113e565b60025b60ff1660028b901b171794508793506111cc565b61115b83611957565b87148015611170575061116d82611957565b86145b1561119957600181611182575f611185565b60025b60ff1660028b901b171794508793506111cb565b6040517f7fcdd1f400000000000000000000000000000000000000000000000000000000815260040160405180910390fd5b5b5050505b94509492505050565b5f5f5f60019050604051604081015f7f0251859caefe66b516c5549d3768d1ba94146083cb044026abebc9908991924883527f2c1e789b2dcafdaa6853d0934c4443d223b8f050ce3466d068f2ab7efa29bc0360208401527f13a264f6a5d0e3938bea4e4431d417f2980774db501085ceafd0d7e76a7f128b82527f155351b5ccccb7a37222f2b82fa4a968f33523326364fe52bb87d1ea3f47c6976020830152863590508060408301527f30644e72e131a029b85045b68181585d2833e84879b9709143e1f593f000000181108416935060408260608460075afa8416935060408360808560065afa841693507f03777818388f77b4065a87d01e141b5fec2ee452d1ada3493892aca2c4da5d4082527f0fb2382a8c87c5992ee8385e493ffd96983c8c42c5545a4daaab264f482865b56020830152602087013590508060408301527f30644e72e131a029b85045b68181585d2833e84879b9709143e1f593f000000181108416935060408260608460075afa8416935060408360808560065afa841693508251955060208301519450505050806113a5576040517fa54f8e2700000000000000000000000000000000000000000000000000000000815260040160405180910390fd5b50915091565b5f5f5f83036113bf575f5f915091506114db565b5f6001808516149050600184901c92507f30644e72e131a029b85045b68181585d97816a916871ca8d3c208c16d87cfd478310611428576040517f7fcdd1f400000000000000000000000000000000000000000000000000000000815260040160405180910390fd5b6114c57f30644e72e131a029b85045b68181585d97816a916871ca8d3c208c16d87cfd478061145a576114596120cb565b5b60037f30644e72e131a029b85045b68181585d97816a916871ca8d3c208c16d87cfd478061148b5761148a6120cb565b5b867f30644e72e131a029b85045b68181585d97816a916871ca8d3c208c16d87cfd47806114bb576114ba6120cb565b5b88890909086118bb565b915080156114d9576114d682611957565b91505b505b915091565b5f5f5f5f5f861480156114f257505f85145b15611508575f5f5f5f93509350935093506118b2565b5f60018088161490505f6002808916149050600288901c95508694507f30644e72e131a029b85045b68181585d97816a916871ca8d3c208c16d87cfd478610158061157357507f30644e72e131a029b85045b68181585d97816a916871ca8d3c208c16d87cfd478510155b156115aa576040517f7fcdd1f400000000000000000000000000000000000000000000000000000000815260040160405180910390fd5b5f7f30644e72e131a029b85045b68181585d97816a916871ca8d3c208c16d87cfd47806115da576115d96120cb565b5b60037f30644e72e131a029b85045b68181585d97816a916871ca8d3c208c16d87cfd476116079190612125565b7f30644e72e131a029b85045b68181585d97816a916871ca8d3c208c16d87cfd4780611636576116356120cb565b5b888a090990505f7f30644e72e131a029b85045b68181585d97816a916871ca8d3c208c16d87cfd478061166c5761166b6120cb565b5b887f30644e72e131a029b85045b68181585d97816a916871ca8d3c208c16d87cfd478061169c5761169b6120cb565b5b8a8b090990505f7f30644e72e131a029b85045b68181585d97816a916871ca8d3c208c16d87cfd47806116d2576116d16120cb565b5b887f30644e72e131a029b85045b68181585d97816a916871ca8d3c208c16d87cfd4780611702576117016120cb565b5b8a8b090990507f30644e72e131a029b85045b68181585d97816a916871ca8d3c208c16d87cfd4780611737576117366120cb565b5b7f30644e72e131a029b85045b68181585d97816a916871ca8d3c208c16d87cfd4780611766576117656120cb565b5b7f30644e72e131a029b85045b68181585d97816a916871ca8d3c208c16d87cfd4780611795576117946120cb565b5b8a860984087f2b149d40ceb8aaae81be18991be06ac3b5b4c5e559dbefa33267e6dc24a138e508965061187a7f30644e72e131a029b85045b68181585d97816a916871ca8d3c208c16d87cfd47806117f0576117ef6120cb565b5b7f30644e72e131a029b85045b68181585d97816a916871ca8d3c208c16d87cfd478061181f5761181e6120cb565b5b7f30644e72e131a029b85045b68181585d97816a916871ca8d3c208c16d87cfd478061184e5761184d6120cb565b5b8c870984087f2fcd3ac2a640a154eb23960892a85a68f031ca0c8344b23a577dcf1052b9e77508611957565b9550611887878786611a2c565b809750819850505084156118ac5761189e87611957565b96506118a986611957565b95505b50505050505b92959194509250565b5f6118e6827f0c19139cb84c680a6e14116da060561765e05aa45a1c72a34f082305b61f3f52611d27565b9050817f30644e72e131a029b85045b68181585d97816a916871ca8d3c208c16d87cfd4780611918576119176120cb565b5b82830914611952576040517f7fcdd1f400000000000000000000000000000000000000000000000000000000815260040160405180910390fd5b919050565b5f7f30644e72e131a029b85045b68181585d97816a916871ca8d3c208c16d87cfd47808381611989576119886120cb565b5b067f30644e72e131a029b85045b68181585d97816a916871ca8d3c208c16d87cfd4703816119ba576119b96120cb565b5b069050919050565b5f5f6119ee837f0c19139cb84c680a6e14116da060561765e05aa45a1c72a34f082305b61f3f52611d27565b9050827f30644e72e131a029b85045b68181585d97816a916871ca8d3c208c16d87cfd4780611a2057611a1f6120cb565b5b82830914915050919050565b5f5f5f611acb7f30644e72e131a029b85045b68181585d97816a916871ca8d3c208c16d87cfd4780611a6157611a606120cb565b5b7f30644e72e131a029b85045b68181585d97816a916871ca8d3c208c16d87cfd4780611a9057611a8f6120cb565b5b8788097f30644e72e131a029b85045b68181585d97816a916871ca8d3c208c16d87cfd4780611ac257611ac16120cb565b5b898a09086118bb565b90508315611adf57611adc81611957565b90505b611b6a7f30644e72e131a029b85045b68181585d97816a916871ca8d3c208c16d87cfd4780611b1157611b106120cb565b5b7f183227397098d014dc2822db40c0ac2ecbc0b548b438e5469e10460b6c3e7ea47f30644e72e131a029b85045b68181585d97816a916871ca8d3c208c16d87cfd4780611b6157611b606120cb565b5b848a08096118bb565b92507f30644e72e131a029b85045b68181585d97816a916871ca8d3c208c16d87cfd4780611b9b57611b9a6120cb565b5b611bd67f30644e72e131a029b85045b68181585d97816a916871ca8d3c208c16d87cfd4780611bcd57611bcc6120cb565b5b60028609611dbe565b860991507f30644e72e131a029b85045b68181585d97816a916871ca8d3c208c16d87cfd4780611c0957611c086120cb565b5b611c437f30644e72e131a029b85045b68181585d97816a916871ca8d3c208c16d87cfd4780611c3b57611c3a6120cb565b5b848509611957565b7f30644e72e131a029b85045b68181585d97816a916871ca8d3c208c16d87cfd4780611c7257611c716120cb565b5b8586090886141580611ce757507f30644e72e131a029b85045b68181585d97816a916871ca8d3c208c16d87cfd4780611cae57611cad6120cb565b5b7f30644e72e131a029b85045b68181585d97816a916871ca8d3c208c16d87cfd4780611cdd57611cdc6120cb565b5b8385096002098514155b15611d1e576040517f7fcdd1f400000000000000000000000000000000000000000000000000000000815260040160405180910390fd5b50935093915050565b5f5f60405160208152602080820152602060408201528460608201528360808201527f30644e72e131a029b85045b68181585d97816a916871ca8d3c208c16d87cfd4760a082015260208160c08360055afa9150805192505080611db7576040517f7fcdd1f400000000000000000000000000000000000000000000000000000000815260040160405180910390fd5b5092915050565b5f611de9827f30644e72e131a029b85045b68181585d97816a916871ca8d3c208c16d87cfd45611d27565b905060017f30644e72e131a029b85045b68181585d97816a916871ca8d3c208c16d87cfd4780611e1c57611e1b6120cb565b5b82840914611e56576040517f7fcdd1f400000000000000000000000000000000000000000000000000000000815260040160405180910390fd5b919050565b6040518060800160405280600490602082028036833780820191505090505090565b604051806103000160405280601890602082028036833780820191505090505090565b6040518060200160405280600190602082028036833780820191505090505090565b5f5ffd5b5f5ffd5b5f81905082602060080282011115611ee557611ee4611ec6565b5b92915050565b5f6101008284031215611f0157611f00611ec2565b5b5f611f0e84828501611eca565b91505092915050565b5f60049050919050565b5f81905092915050565b5f819050919050565b5f819050919050565b611f4681611f34565b82525050565b5f611f578383611f3d565b60208301905092915050565b5f602082019050919050565b611f7881611f17565b611f828184611f21565b9250611f8d82611f2b565b805f5b83811015611fbd578151611fa48782611f4c565b9650611faf83611f63565b925050600181019050611f90565b505050505050565b5f608082019050611fd85f830184611f6f565b92915050565b5f81905082602060020282011115611ff957611ff8611ec6565b5b92915050565b5f5f610140838503121561201657612015611ec2565b5b5f61202385828601611eca565b92505061010061203585828601611fde565b9150509250929050565b5f8190508260206004028201111561205a57612059611ec6565b5b92915050565b5f5f60c0838503121561207657612075611ec2565b5b5f6120838582860161203f565b925050608061209485828601611fde565b9150509250929050565b7f4e487b71000000000000000000000000000000000000000000000000000000005f52603260045260245ffd5b7f4e487b71000000000000000000000000000000000000000000000000000000005f52601260045260245ffd5b7f4e487b71000000000000000000000000000000000000000000000000000000005f52601160045260245ffd5b5f61212f82611f34565b915061213a83611f34565b9250828203905081811115612152576121516120f8565b5b9291505056fea26469706673582212200c16c332168a2f975e4deef0d2968fe9410820643b8f50ca54e3c9638dc626c664736f6c634300081e0033","linkReferences":{}},"methodIdentifiers":{"Verify(uint256[8],uint256[2])":"eddf243c","compressProof(uint256[8])":"44f63692","verifyCompressedProof(uint256[4],uint256[2])":"f11817b2"},"id":35}