{"abi":[{"type":"constructor","inputs":[{"name":"_collateralToken","type":"address","internalType":"address"},{"name":"_debtToken","type":"address","internalType":"address"}],"stateMutability":"nonpayable"},{"type":"function","name":"BPS_DENOMINATOR","inputs":[],"outputs":[{"name":"","type":"uint256","internalType":"uint256"}],"stateMutability":"view"},{"type":"function","name":"COLLATERAL_TOKEN","inputs":[],"outputs":[{"name":"","type":"address","internalType":"contract IERC20"}],"stateMutability":"view"},{"type":"function","name":"DEBT_TOKEN","inputs":[],"outputs":[{"name":"","type":"address","internalType":"contract IERC20"}],"stateMutability":"view"},{"type":"function","name":"MAX_LTV_BPS","inputs":[],"outputs":[{"name":"","type":"uint256","internalType":"uint256"}],"stateMutability":"view"},{"type":"function","name":"borrow","inputs":[{"name":"amount","type":"uint256","internalType":"uint256"}],"outputs":[],"stateMutability":"nonpayable"},{"type":"function","name":"collateralPriceUSD","inputs":[],"outputs":[{"name":"","type":"uint256","internalType":"uint256"}],"stateMutability":"view"},{"type":"function","name":"deposit","inputs":[{"name":"amount","type":"uint256","internalType":"uint256"}],"outputs":[],"stateMutability":"nonpayable"},{"type":"function","name":"fundVault","inputs":[{"name":"amount","type":"uint256","internalType":"uint256"}],"outputs":[],"stateMutability":"nonpayable"},{"type":"function","name":"getAvailableBorrow","inputs":[{"name":"user","type":"address","internalType":"address"}],"outputs":[{"name":"","type":"uint256","internalType":"uint256"}],"stateMutability":"view"},{"type":"function","name":"getHealthFactor","inputs":[{"name":"user","type":"address","internalType":"address"}],"outputs":[{"name":"","type":"uint256","internalType":"uint256"}],"stateMutability":"view"},{"type":"function","name":"getUserCollateral","inputs":[{"name":"user","type":"address","internalType":"address"}],"outputs":[{"name":"","type":"uint256","internalType":"uint256"}],"stateMutability":"view"},{"type":"function","name":"getUserDebt","inputs":[{"name":"user","type":"address","internalType":"address"}],"outputs":[{"name":"","type":"uint256","internalType":"uint256"}],"stateMutability":"view"},{"type":"function","name":"getVaultCollateral","inputs":[],"outputs":[{"name":"","type":"uint256","internalType":"uint256"}],"stateMutability":"view"},{"type":"function","name":"getVaultLiquidity","inputs":[],"outputs":[{"name":"","type":"uint256","internalType":"uint256"}],"stateMutability":"view"},{"type":"function","name":"owner","inputs":[],"outputs":[{"name":"","type":"address","internalType":"address"}],"stateMutability":"view"},{"type":"function","name":"repay","inputs":[{"name":"amount","type":"uint256","internalType":"uint256"}],"outputs":[],"stateMutability":"nonpayable"},{"type":"function","name":"updatePrice","inputs":[{"name":"newPriceUSD","type":"uint256","internalType":"uint256"}],"outputs":[],"stateMutability":"nonpayable"},{"type":"function","name":"userCollateral","inputs":[{"name":"","type":"address","internalType":"address"}],"outputs":[{"name":"","type":"uint256","internalType":"uint256"}],"stateMutability":"view"},{"type":"function","name":"userDebt","inputs":[{"name":"","type":"address","internalType":"address"}],"outputs":[{"name":"","type":"uint256","internalType":"uint256"}],"stateMutability":"view"},{"type":"function","name":"withdraw","inputs":[{"name":"amount","type":"uint256","internalType":"uint256"}],"outputs":[],"stateMutability":"nonpayable"},{"type":"event","name":"Borrow","inputs":[{"name":"user","type":"address","indexed":true,"internalType":"address"},{"name":"amount","type":"uint256","indexed":false,"internalType":"uint256"},{"name":"timestamp","type":"uint256","indexed":false,"internalType":"uint256"}],"anonymous":false},{"type":"event","name":"Deposit","inputs":[{"name":"user","type":"address","indexed":true,"internalType":"address"},{"name":"amount","type":"uint256","indexed":false,"internalType":"uint256"},{"name":"timestamp","type":"uint256","indexed":false,"internalType":"uint256"}],"anonymous":false},{"type":"event","name":"Repay","inputs":[{"name":"user","type":"address","indexed":true,"internalType":"address"},{"name":"amount","type":"uint256","indexed":false,"internalType":"uint256"},{"name":"timestamp","type":"uint256","indexed":false,"internalType":"uint256"}],"anonymous":false},{"type":"event","name":"Withdraw","inputs":[{"name":"user","type":"address","indexed":true,"internalType":"address"},{"name":"amount","type":"uint256","indexed":false,"internalType":"uint256"},{"name":"timestamp","type":"uint256","indexed":false,"internalType":"uint256"}],"anonymous":false},{"type":"error","name":"AddressEmptyCode","inputs":[{"name":"target","type":"address","internalType":"address"}]},{"type":"error","name":"AddressInsufficientBalance","inputs":[{"name":"account","type":"address","internalType":"address"}]},{"type":"error","name":"ExceedsLTV","inputs":[]},{"type":"error","name":"FailedInnerCall","inputs":[]},{"type":"error","name":"InsufficientCollateral","inputs":[]},{"type":"error","name":"InsufficientLiquidity","inputs":[]},{"type":"error","name":"NoDebt","inputs":[]},{"type":"error","name":"SafeERC20FailedOperation","inputs":[{"name":"token","type":"address","internalType":"address"}]},{"type":"error","name":"UnauthorizedCaller","inputs":[]}],"bytecode":{"object":"0x60c06040526377359400600355348015610017575f5ffd5b50604051611af1380380611af183398181016040528101906100399190610145565b8173ffffffffffffffffffffffffffffffffffffffff1660808173ffffffffffffffffffffffffffffffffffffffff16815250508073ffffffffffffffffffffffffffffffffffffffff1660a08173ffffffffffffffffffffffffffffffffffffffff1681525050335f5f6101000a81548173ffffffffffffffffffffffffffffffffffffffff021916908373ffffffffffffffffffffffffffffffffffffffff1602179055505050610183565b5f5ffd5b5f73ffffffffffffffffffffffffffffffffffffffff82169050919050565b5f610114826100eb565b9050919050565b6101248161010a565b811461012e575f5ffd5b50565b5f8151905061013f8161011b565b92915050565b5f5f6040838503121561015b5761015a6100e7565b5b5f61016885828601610131565b925050602061017985828601610131565b9150509250929050565b60805160a0516119156101dc5f395f81816107ab0152818161089b0152818161093801528181610a9a01528181610dde0152610ef901525f818161067701528181610aff01528181610c330152610fe401526119155ff3fe608060405234801561000f575f5ffd5b506004361061012a575f3560e01c8063b69e5c77116100ab578063e1a452181161006f578063e1a452181461031a578063e65896c914610338578063f5f1f1a714610368578063f69f1e4a14610386578063fe6bcd7c146103b65761012a565b8063b69e5c7714610264578063b6b55f2514610294578063b6f7132f146102b0578063bcf91c2c146102e0578063c5ebeaec146102fe5761012a565b806339413712116100f257806339413712146101d2578063854db43c146101f05780638d6cc56d1461020e5780638da5cb5b1461022a578063abe73ef5146102485761012a565b80631bfaae1d1461012e578063255e5f521461014c5780632e1a7d4d1461017c578063341a04db14610198578063371fd8e6146101b6575b5f5ffd5b6101366103e6565b6040516101439190611491565b60405180910390f35b61016660048036038101906101619190611508565b6103ec565b6040516101739190611491565b60405180910390f35b6101966004803603810190610191919061155d565b6104dc565b005b6101a0610711565b6040516101ad9190611491565b60405180910390f35b6101d060048036038101906101cb919061155d565b610717565b005b6101da610898565b6040516101e79190611491565b60405180910390f35b6101f8610936565b60405161020591906115e3565b60405180910390f35b6102286004803603810190610223919061155d565b61095a565b005b6102326109e9565b60405161023f919061160b565b60405180910390f35b610262600480360381019061025d919061155d565b610a0d565b005b61027e60048036038101906102799190611508565b610ae2565b60405161028b9190611491565b60405180910390f35b6102ae60048036038101906102a9919061155d565b610af7565b005b6102ca60048036038101906102c59190611508565b610bea565b6040516102d79190611491565b60405180910390f35b6102e8610c30565b6040516102f59190611491565b60405180910390f35b6103186004803603810190610313919061155d565b610cce565b005b610322610f96565b60405161032f9190611491565b60405180910390f35b610352600480360381019061034d9190611508565b610f9c565b60405161035f9190611491565b60405180910390f35b610370610fe2565b60405161037d91906115e3565b60405180910390f35b6103a0600480360381019061039b9190611508565b611006565b6040516103ad9190611491565b60405180910390f35b6103d060048036038101906103cb9190611508565b61101b565b6040516103dd9190611491565b60405180910390f35b611f4081565b5f5f60015f8473ffffffffffffffffffffffffffffffffffffffff1673ffffffffffffffffffffffffffffffffffffffff1681526020019081526020015f205490505f60025f8573ffffffffffffffffffffffffffffffffffffffff1673ffffffffffffffffffffffffffffffffffffffff1681526020019081526020015f205490505f670de0b6b3a7640000600354846104879190611651565b61049191906116bf565b90505f612710611f40836104a59190611651565b6104af91906116bf565b90508083106104c4575f9450505050506104d7565b82816104d091906116ef565b9450505050505b919050565b5f60015f3373ffffffffffffffffffffffffffffffffffffffff1673ffffffffffffffffffffffffffffffffffffffff1681526020019081526020015f205490505f60025f3373ffffffffffffffffffffffffffffffffffffffff1673ffffffffffffffffffffffffffffffffffffffff1681526020019081526020015f2054905081831115610598576040517f3a23d82500000000000000000000000000000000000000000000000000000000815260040160405180910390fd5b5f83836105a591906116ef565b90505f82111561062e575f670de0b6b3a7640000600354836105c79190611651565b6105d191906116bf565b90505f612710611f40836105e59190611651565b6105ef91906116bf565b90508084111561062b576040517fc84e38ae00000000000000000000000000000000000000000000000000000000815260040160405180910390fd5b50505b8060015f3373ffffffffffffffffffffffffffffffffffffffff1673ffffffffffffffffffffffffffffffffffffffff1681526020019081526020015f20819055506106bb33857f000000000000000000000000000000000000000000000000000000000000000073ffffffffffffffffffffffffffffffffffffffff166111349092919063ffffffff16565b3373ffffffffffffffffffffffffffffffffffffffff167ff279e6a1f5e320cca91135676d9cb6e44ca8a08c0b88342bcdb1144f6511b5688542604051610703929190611722565b60405180910390a250505050565b60035481565b5f60025f3373ffffffffffffffffffffffffffffffffffffffff1673ffffffffffffffffffffffffffffffffffffffff1681526020019081526020015f205490505f8103610791576040517f11a3fbc600000000000000000000000000000000000000000000000000000000815260040160405180910390fd5b5f81831161079f57826107a1565b815b90506107f03330837f000000000000000000000000000000000000000000000000000000000000000073ffffffffffffffffffffffffffffffffffffffff166111b3909392919063ffffffff16565b8060025f3373ffffffffffffffffffffffffffffffffffffffff1673ffffffffffffffffffffffffffffffffffffffff1681526020019081526020015f205f82825461083c91906116ef565b925050819055503373ffffffffffffffffffffffffffffffffffffffff167f77c6871227e5d2dec8dadd5354f78453203e22e669cd0ec4c19d9a8c5edb31d0824260405161088b929190611722565b60405180910390a2505050565b5f7f000000000000000000000000000000000000000000000000000000000000000073ffffffffffffffffffffffffffffffffffffffff166370a08231306040518263ffffffff1660e01b81526004016108f2919061160b565b602060405180830381865afa15801561090d573d5f5f3e3d5ffd5b505050506040513d601f19601f82011682018060405250810190610931919061175d565b905090565b7f000000000000000000000000000000000000000000000000000000000000000081565b5f5f9054906101000a900473ffffffffffffffffffffffffffffffffffffffff1673ffffffffffffffffffffffffffffffffffffffff163373ffffffffffffffffffffffffffffffffffffffff16146109df576040517f5c427cd900000000000000000000000000000000000000000000000000000000815260040160405180910390fd5b8060038190555050565b5f5f9054906101000a900473ffffffffffffffffffffffffffffffffffffffff1681565b5f5f9054906101000a900473ffffffffffffffffffffffffffffffffffffffff1673ffffffffffffffffffffffffffffffffffffffff163373ffffffffffffffffffffffffffffffffffffffff1614610a92576040517f5c427cd900000000000000000000000000000000000000000000000000000000815260040160405180910390fd5b610adf3330837f000000000000000000000000000000000000000000000000000000000000000073ffffffffffffffffffffffffffffffffffffffff166111b3909392919063ffffffff16565b50565b6002602052805f5260405f205f915090505481565b610b443330837f000000000000000000000000000000000000000000000000000000000000000073ffffffffffffffffffffffffffffffffffffffff166111b3909392919063ffffffff16565b8060015f3373ffffffffffffffffffffffffffffffffffffffff1673ffffffffffffffffffffffffffffffffffffffff1681526020019081526020015f205f828254610b909190611788565b925050819055503373ffffffffffffffffffffffffffffffffffffffff167f90890809c654f11d6e72a28fa60149770a0d11ec6c92319d6ceb2bb0a4ea1a158242604051610bdf929190611722565b60405180910390a250565b5f60015f8373ffffffffffffffffffffffffffffffffffffffff1673ffffffffffffffffffffffffffffffffffffffff1681526020019081526020015f20549050919050565b5f7f000000000000000000000000000000000000000000000000000000000000000073ffffffffffffffffffffffffffffffffffffffff166370a08231306040518263ffffffff1660e01b8152600401610c8a919061160b565b602060405180830381865afa158015610ca5573d5f5f3e3d5ffd5b505050506040513d601f19601f82011682018060405250810190610cc9919061175d565b905090565b5f60015f3373ffffffffffffffffffffffffffffffffffffffff1673ffffffffffffffffffffffffffffffffffffffff1681526020019081526020015f205490505f60025f3373ffffffffffffffffffffffffffffffffffffffff1673ffffffffffffffffffffffffffffffffffffffff1681526020019081526020015f205490505f8382610d5d9190611788565b90505f670de0b6b3a764000060035485610d779190611651565b610d8191906116bf565b90505f612710611f4083610d959190611651565b610d9f91906116bf565b905080831115610ddb576040517fc84e38ae00000000000000000000000000000000000000000000000000000000815260040160405180910390fd5b5f7f000000000000000000000000000000000000000000000000000000000000000073ffffffffffffffffffffffffffffffffffffffff166370a08231306040518263ffffffff1660e01b8152600401610e35919061160b565b602060405180830381865afa158015610e50573d5f5f3e3d5ffd5b505050506040513d601f19601f82011682018060405250810190610e74919061175d565b905086811015610eb0576040517fbb55fd2700000000000000000000000000000000000000000000000000000000815260040160405180910390fd5b8360025f3373ffffffffffffffffffffffffffffffffffffffff1673ffffffffffffffffffffffffffffffffffffffff1681526020019081526020015f2081905550610f3d33887f000000000000000000000000000000000000000000000000000000000000000073ffffffffffffffffffffffffffffffffffffffff166111349092919063ffffffff16565b3373ffffffffffffffffffffffffffffffffffffffff167fe1979fe4c35e0cef342fef5668e2c8e7a7e9f5d5d1ca8fee0ac6c427fa4153af8842604051610f85929190611722565b60405180910390a250505050505050565b61271081565b5f60025f8373ffffffffffffffffffffffffffffffffffffffff1673ffffffffffffffffffffffffffffffffffffffff1681526020019081526020015f20549050919050565b7f000000000000000000000000000000000000000000000000000000000000000081565b6001602052805f5260405f205f915090505481565b5f5f60025f8473ffffffffffffffffffffffffffffffffffffffff1673ffffffffffffffffffffffffffffffffffffffff1681526020019081526020015f205490505f810361108d577fffffffffffffffffffffffffffffffffffffffffffffffffffffffffffffffff91505061112f565b5f60015f8573ffffffffffffffffffffffffffffffffffffffff1673ffffffffffffffffffffffffffffffffffffffff1681526020019081526020015f205490505f670de0b6b3a7640000600354836110e69190611651565b6110f091906116bf565b90505f612710611f40836111049190611651565b61110e91906116bf565b90508360648261111e9190611651565b61112891906116bf565b9450505050505b919050565b6111ae838473ffffffffffffffffffffffffffffffffffffffff1663a9059cbb85856040516024016111679291906117bb565b604051602081830303815290604052915060e01b6020820180517bffffffffffffffffffffffffffffffffffffffffffffffffffffffff8381831617835250505050611235565b505050565b61122f848573ffffffffffffffffffffffffffffffffffffffff166323b872dd8686866040516024016111e8939291906117e2565b604051602081830303815290604052915060e01b6020820180517bffffffffffffffffffffffffffffffffffffffffffffffffffffffff8381831617835250505050611235565b50505050565b5f61125f828473ffffffffffffffffffffffffffffffffffffffff166112ca90919063ffffffff16565b90505f815114158015611283575080806020019051810190611281919061184c565b155b156112c557826040517f5274afe70000000000000000000000000000000000000000000000000000000081526004016112bc919061160b565b60405180910390fd5b505050565b60606112d783835f6112df565b905092915050565b60608147101561132657306040517fcd78605900000000000000000000000000000000000000000000000000000000815260040161131d919061160b565b60405180910390fd5b5f5f8573ffffffffffffffffffffffffffffffffffffffff16848660405161134e91906118c9565b5f6040518083038185875af1925050503d805f8114611388576040519150601f19603f3d011682016040523d82523d5f602084013e61138d565b606091505b509150915061139d8683836113a8565b925050509392505050565b6060826113bd576113b882611435565b61142d565b5f82511480156113e357505f8473ffffffffffffffffffffffffffffffffffffffff163b145b1561142557836040517f9996b31500000000000000000000000000000000000000000000000000000000815260040161141c919061160b565b60405180910390fd5b81905061142e565b5b9392505050565b5f815111156114475780518082602001fd5b6040517f1425ea4200000000000000000000000000000000000000000000000000000000815260040160405180910390fd5b5f819050919050565b61148b81611479565b82525050565b5f6020820190506114a45f830184611482565b92915050565b5f5ffd5b5f73ffffffffffffffffffffffffffffffffffffffff82169050919050565b5f6114d7826114ae565b9050919050565b6114e7816114cd565b81146114f1575f5ffd5b50565b5f81359050611502816114de565b92915050565b5f6020828403121561151d5761151c6114aa565b5b5f61152a848285016114f4565b91505092915050565b61153c81611479565b8114611546575f5ffd5b50565b5f8135905061155781611533565b92915050565b5f60208284031215611572576115716114aa565b5b5f61157f84828501611549565b91505092915050565b5f819050919050565b5f6115ab6115a66115a1846114ae565b611588565b6114ae565b9050919050565b5f6115bc82611591565b9050919050565b5f6115cd826115b2565b9050919050565b6115dd816115c3565b82525050565b5f6020820190506115f65f8301846115d4565b92915050565b611605816114cd565b82525050565b5f60208201905061161e5f8301846115fc565b92915050565b7f4e487b71000000000000000000000000000000000000000000000000000000005f52601160045260245ffd5b5f61165b82611479565b915061166683611479565b925082820261167481611479565b9150828204841483151761168b5761168a611624565b5b5092915050565b7f4e487b71000000000000000000000000000000000000000000000000000000005f52601260045260245ffd5b5f6116c982611479565b91506116d483611479565b9250826116e4576116e3611692565b5b828204905092915050565b5f6116f982611479565b915061170483611479565b925082820390508181111561171c5761171b611624565b5b92915050565b5f6040820190506117355f830185611482565b6117426020830184611482565b9392505050565b5f8151905061175781611533565b92915050565b5f60208284031215611772576117716114aa565b5b5f61177f84828501611749565b91505092915050565b5f61179282611479565b915061179d83611479565b92508282019050808211156117b5576117b4611624565b5b92915050565b5f6040820190506117ce5f8301856115fc565b6117db6020830184611482565b9392505050565b5f6060820190506117f55f8301866115fc565b61180260208301856115fc565b61180f6040830184611482565b949350505050565b5f8115159050919050565b61182b81611817565b8114611835575f5ffd5b50565b5f8151905061184681611822565b92915050565b5f60208284031215611861576118606114aa565b5b5f61186e84828501611838565b91505092915050565b5f81519050919050565b5f81905092915050565b8281835e5f83830152505050565b5f6118a382611877565b6118ad8185611881565b93506118bd81856020860161188b565b80840191505092915050565b5f6118d48284611899565b91508190509291505056fea2646970667358221220eece34e6311aac6e6054105672da29d49a411d5414f021c9a6f54f69443fd43a64736f6c634300081e0033","linkReferences":{}},"methodIdentifiers":{"BPS_DENOMINATOR()":"e1a45218","COLLATERAL_TOKEN()":"f5f1f1a7","DEBT_TOKEN()":"854db43c","MAX_LTV_BPS()":"1bfaae1d","borrow(uint256)":"c5ebeaec","collateralPriceUSD()":"341a04db","deposit(uint256)":"b6b55f25","fundVault(uint256)":"abe73ef5","getAvailableBorrow(address)":"255e5f52","getHealthFactor(address)":"fe6bcd7c","getUserCollateral(address)":"b6f7132f","getUserDebt(address)":"e65896c9","getVaultCollateral()":"bcf91c2c","getVaultLiquidity()":"39413712","owner()":"8da5cb5b","repay(uint256)":"371fd8e6","updatePrice(uint256)":"8d6cc56d","userCollateral(address)":"f69f1e4a","userDebt(address)":"b69e5c77","withdraw(uint256)":"2e1a7d4d"},"id":42}